:020000040800F2
:100000000807002045010008652900086729000845
:100010006B2900086F290008732900080000000000
:100020000000000000000000000000007729000828
:1000300079290008000000007B2900087D290008BC
:100040005F0100085F0100085F0100085F01000810
:100050005F0100085F0100085F0100085F01000800
:100060005F0100085F0100085F0100085F010008F0
:100070005F0100085F0100085F0100085F010008E0
:100080005F0100085F0100085F0100085F010008D0
:100090005F0100085F0100085F0100085F010008C0
:1000A0005F0100085F0100085F0100085F010008B0
:1000B0005F0100085F0100085F0100085F010008A0
:1000C0005F0100085F0100085F0100085F01000890
:1000D0005F0100085F0100085F0100085F01000880
:1000E0005F0100085F0100085F0100085F01000870
:1000F0005F0100085F0100085F0100085F01000860
:100100005F0100085F0100085F0100085F0100084F
:100110005F0100087F2900085F0100085F010008F7
:100120005F0100085F0100085F0100085F0100082F
:10013000DFF80CD005F018FF00480047E52800085C
:10014000080700200648804706480047FEE7FEE70C
:10015000FEE7FEE7FEE7FEE7FEE7FEE7FEE7FEE777
:1001600047020008310100080CB500200190009002
:100170006C48006840F480306A49086000BF6948F4
:10018000006800F4003000900198401C0190009835
:1001900018B90198B0F5A06FF1D16248006800F479
:1001A000003010B10120009001E000200090009884
:1001B000012843D15C48006840F010005A490860AB
:1001C0000846006820F0030008600846006840F018
:1001D0000200086053484068524948600846406839
:1001E00048600846406840F48060486008464068BF
:1001F00020F47C1048600846406840F4E8104860ED
:100200000846006840F08070086000BF45480068FC
:1002100000F000700028F9D04248406820F0030048
:10022000404948600846406840F00200486000BF0E
:100230003C48406800F00C000828F9D10CBD10B50E
:10024000FFF792FF10BD10B53648006840F001007E
:1002500034490860084640683449084031494860DC
:1002600008460068324908402E4908600846006880
:1002700020F4802008600846406820F4FE004860B2
:100280004FF41F008860FFF7DAFF4FF00060294944
:10029000086010BD10B5002100200022214B5B68D2
:1002A00003F00C0121B1042906D0082928D107E068
:1002B000214B224C236027E01F4B204C236023E07E
:1002C000184B5B6803F47010164B5B6803F48032C4
:1002D000022303EB904022B9194B4343174C236090
:1002E0000DE0104B5B6803F4003323B1144B434320
:1002F000124C236003E0104B4343104C236003E097
:100300000D4B0E4C236000BF00BF064B5B68C3F370
:1003100003130C4CE15C094B1B68CB40074C23607A
:1003200010BD000000100240002002400000FFF855
:10033000FFFFF6FE08ED00E000127A00000000204A
:1003400000093D000400002031490143314A116099
:10035000704770B5002100230F22C47804B32D4CE0
:10036000246804F4E064C4F5E064210AC1F10403E4
:10037000CA40447804FA03F1847814402143090107
:10038000254C0678A155047804F01F050124AC40E3
:1003900005786D11AD0005F1E025C5F8004109E0D3
:1003A000047804F01F050124AC401C4D067876113A
:1003B00045F8264070BD1A4A0A400243154B1B1FE0
:1003C0001A60704739B1134A121D12680243114B6B
:1003D0001B1D1A6006E00F4A121D126882430D4B66
:1003E0001B1D1A607047042808D14FF0E0210969ED
:1003F00041F004014FF0E022116107E04FF0E021ED
:10040000096921F004014FF0E022116170470000FA
:100410000000FA050CED00E000E400E080E100E0FF
:1004200080FFFF1F10B50446FA48844208D101211D
:10043000401501F0FBF80021601501F0F7F817E016
:10044000F548844208D10121001501F0EFF80021A0
:10045000201501F0EBF80BE0F048844208D10121AF
:10046000C80301F0E3F800214FF4004001F0DEF88A
:1004700010BD30B50246002000235068E84C2040F3
:100480000D790C6844EA0524204350609068E54CDF
:100490002040D1E902542C434D7944EA45042043DD
:1004A0009060D06A20F470000C7C641EE4B2234398
:1004B00040EA0350D06230BD0021016001714171FA
:1004C0008160C16001210174704721B1826842F0EE
:1004D0000102826003E0826822F0010282607047BC
:1004E00021B1826842F48072826003E0826822F463
:1004F00080728260704710B50023CBB21AB1446895
:100500001C43446002E044689C43446010BD816821
:1005100041F0080181607047014600208A6802F0BE
:1005200008020AB1012000E000207047816841F014
:10053000040181607047014600208A6802F00402CD
:100540000AB1012000E00020704721B1826842F426
:10055000A002826003E0826822F4A00282607047F9
:10056000014600208A6802F480020AB1012000E0FE
:100570000020704710B50A4600210023416821F48D
:100580006041531E41EA4331416010BD21B14268D0
:1005900042F40062426003E0426822F4006242607A
:1005A0007047F0B504460D4600200021092D11DDED
:1005B000E068A5F10A0606EB4607072606FA07F1EA
:1005C0008843A5F10A0606EB460603FA06F108433E
:1005D000E0600CE0206905EB4507072606FA07F105
:1005E000884305EB450603FA06F108432061072A14
:1005F0000FDA606B561E06EB86071F2606FA07F118
:100600008843561E06EB860605FA06F1084360632A
:1006100022E00D2A0FDA206BD61F06EB86071F2675
:1006200006FA07F18843D61F06EB860605FA06F19F
:100630000843206310E0E06AA2F10D0606EB86078E
:100640001F2606FA07F18843A2F10D0606EB86067F
:1006500005FA06F10843E062F0BD21B1826842F478
:100660008012826003E0826822F480128260704708
:100670000146C86C80B2704766484C3000687047CD
:1006800021B1426842F48062426003E0426822F491
:1006900080624260704721B1426842F480524260F9
:1006A00003E0426822F48052426070470A4600210B
:1006B000816821F4E04111438160704721B1826873
:1006C00042F40042826003E0826822F400428260C9
:1006D000704721B1826842F40212826003E08268AE
:1006E00022F4021282607047014600208A6802F4F8
:1006F00000120AB1012000E000207047F0B5044666
:100700001546002000220026092911DDE068A1F12C
:100710000A0707EB470C072707FA0CF29043A1F1F1
:100720000A0707EB470703FA07F21043E0600CE003
:10073000206901EB410C072707FA0CF2904301EB0B
:10074000410703FA07F210432061A06BC0F3015682
:10075000EF1C06F1010CA7EB0C0707EB870C1F271A
:1007600007FA0CF29043EF1C06F1010CA7EB0C0703
:1007700007EB870701FA07F21043A063F0BD10B53D
:100780000A4600210023816B21F44011531E41EAE7
:100790000351816310BD08B5002300930090009BB6
:1007A0000B440093009B1A6008BD08B50246002068
:1007B0000090009201F12800009B184400900098DE
:1007C000006880B208BD0A4600214168164B1940F6
:1007D0001143416070474162826270470A460021BE
:1007E000416821F01F0111434160704740B1094940
:1007F0000831096841F40001064A0832116007E037
:1008000004490831096821F40001024A08321160E4
:10081000704700000024014000280140003C0140D6
:10082000FFFEF0FFFDF7F1FFFFFD3FFF0246002056
:1008300013680B400BB1012000E000207047CA4351
:100840000260704770B502460020002300240B129E
:100850005568CEB205EA060415681D4015B10CB105
:10086000012000E0002070BD00220A12D343036083
:100870007047000010B5012000F0F2FE002000F0EB
:10088000EFFE10BD2A49086070472949091F08601A
:100890007047274984310860704701460020254A87
:1008A00010884FF67F4210400843224A108070475C
:1008B000014600201F4A10884FF6807210400843FE
:1008C0001C4A1080704708B500220092194A2C3A41
:1008D0000092009A02440092009A116008BD08B587
:1008E00001460020009013482C38009000980844DE
:1008F00000900098008808BD0D489C300068C0B288
:1009000070470C480830008840F001000949083160
:10091000088070470648A0300068C0B2704705489C
:100920000830008840F00200024908310880704712
:1009300004860D422C6C004001460020FE4A1068DF
:1009400000F03800084310607047FB49096821F047
:100950000801F94A116011460968014311607047A6
:10096000F549096821F01001F34A11601146096840
:10097000014311607047F148EF494860F048486012
:100980007047EE48EC494860ED4848607047EA48D7
:10099000006940F08000E84908617047E648006956
:1009A00040F08000E449086170470420E249C968CA
:1009B00001F0010109B101200EE0DF49C96801F031
:1009C000040109B1022007E0DB49C96801F0100108
:1009D00009B1032000E00420704700B5024604235B
:1009E000FFF7E3FF034603E0FFF7DFFF0346521E76
:1009F000012B01D1002AF7D102B90523184600BD09
:100A000030B5044604254FF43020FFF7E6FF0546D5
:100A1000042D17D1C848006940F00200C64908619A
:100A200008464461006940F0400008614FF43020FE
:100A3000FFF7D3FF0546C048006941F6FD71084045
:100A4000BD490861284630BD10B504244FF430205C
:100A5000FFF7C3FF0446042C16D1B748006940F0E5
:100A60000400B54908610846006940F0400008618B
:100A70004FF43020FFF7B1FF0446AF48006941F65C
:100A8000FB710840AC490861204610BD00B5024624
:100A90000423FFF78AFF034603E0FFF786FF0346C0
:100AA000521E012B01D1002AF7D102B905231846A5
:100AB00000BD10B504244FF43020FFF7E7FF0446D3
:100AC000042C16D19C48006940F004009A49086142
:100AD0000846006940F0400008614FF43020FFF7FD
:100AE000D5FF04469448006941F6FB7108409249DD
:100AF0000861204610BD00208F49C96901F002013C
:100B000009B1012000E00020704730B5A52504247C
:100B1000FFF7F1FF00B100254FF43020FFF75DFF34
:100B20000446042C3AD1854883498860844888600B
:100B30000846006940F0200008610846006940F05E
:100B4000400008614FF43020FFF747FF0446042CB3
:100B50001BD17948006941F6DF7108407649086188
:100B60000846006940F01000086176480580E00200
:100B7000FFF733FF0446052C10D06F48006941F69B
:100B8000EF7108406C49086108E0052C06D06A48FE
:100B9000006941F6EF71084067490861204630BDA1
:100BA00078B506460C46042500200090E802FFF7C1
:100BB00014FF0546042D24D15F48006940F0010070
:100BC0005D4908613480E802FFF707FF0546042D00
:100BD00010D1B01C0090200C00990880E802FFF7AB
:100BE000FCFE05465448006941F6FE710840524932
:100BF000086106E05048006941F6FE7108404E4920
:100C00000861284678BD70B504460D460426F002FA
:100C1000FFF7E3FE0646042E11D14748006940F075
:100C20000100454908612580F002FFF7D6FE06461F
:100C30004148006941F6FE7108403F49086130466D
:100C400070BD70B505460E460424E002FFF7C5FEF0
:100C50000446042C17D139483749886038488860E1
:100C60000846006940F0100008612E80E002FFF79E
:100C7000B4FE0446052C06D02F48006941F6EF71FA
:100C800008402D490861204670BD2DE9F043044617
:100C90004FF6FF763746B046B1460425E443E6B248
:100CA000C4F30727C4F307484FEA1469E802FFF7C3
:100CB00094FE0546042D49D120481F4988602048EC
:100CC00088600846006940F010000861FF2E06D0D9
:100CD0001C4808300680E802FFF77FFE0546042D19
:100CE00008D1FF2F06D017480A300780E802FFF727
:100CF00074FE0546042D0AD1B8F1FF0F07D0114844
:100D00000C30A0F80080E802FFF767FE0546042DCE
:100D10000AD1B9F1FF0F07D00A480E30A0F80090B1
:100D2000E802FFF75AFE0546052D0FD0024800697C
:100D300041F6EF71084007E00020024023016745BB
:100D4000AB89EFCD00F8FF1F664908612846BDE872
:100D5000F08330B5054604244FF43020FFF73DFE04
:100D60000446042C41D160485E4988605F48886031
:100D70000846006940F0200008610846006940F01C
:100D8000400008614FF43020FFF727FE0446042C92
:100D900022D15448006941F6DF7108405149086189
:100DA0000846006940F0100008611DB1002050495C
:100DB000088002E0A5204E4908804FF43020FFF75C
:100DC0000CFE0446052C10D04648006941F6EF7130
:100DD00008404449086108E0052C06D041480069F4
:100DE00041F6DF7108403F490861204630BDF0B54B
:100DF00005460E46174604243B483A4988603B485E
:100E00008860E002FFF7E9FD0446042C19D135485B
:100E1000006940F010003349086147F0F8003043A2
:100E200028433349891C0880E002FFF7D6FD0446B9
:100E3000052C06D02B48006941F6EF71084029497E
:100E400008612046F0BD2748C069800870472548E2
:100E5000006A704700202349096801F0200109B1A8
:100E6000012000E00020704729B11E4A12690243A8
:100E70001C4B1A6104E01B4A12698243194B1A6128
:100E8000704701460020012908D1164AD26902F0B4
:100E900001020AB1012008E0002006E0114AD268F0
:100EA0000A400AB1012000E0002070470D49C860E7
:100EB000704704200B49C96801F0010109B1012004
:100EC0000EE00849C96801F0040109B1022007E0F9
:100ED0000449C96801F0100109B1032000E00420B1
:100EE000704700000020024023016745AB89EFCD29
:100EF00000F8FF1F10B50446CC48844208D10121F8
:100F0000042000F093FB0021042000F08FFB46E05A
:100F1000C748844208D10121082000F087FB002146
:100F2000082000F083FB3AE0C248844208D1012146
:100F3000102000F07BFB0021102000F077FB2EE05A
:100F4000BD48844208D10121202000F06FFB002120
:100F5000202000F06BFB22E0B848844208D1012138
:100F6000402000F063FB0021402000F05FFB16E012
:100F7000B348844208D10121802000F057FB0021B2
:100F8000802000F053FB0AE0AE48844207D10121E3
:100F9000801500F04BFB0021A01500F047FB10BDB1
:100FA00010B50121084600F041FB0021012000F0AE
:100FB0003DFB10BD2DE9F041024600250026002032
:100FC00000230024002791F803C00CF00F0591F8CE
:100FD00003C00CF0100CBCF1000F03D091F802C05C
:100FE0004CEA050591F800C0BCF1000F31D014683F
:100FF00000202BE04FF0010C0CFA00F3B1F800C018
:101000000CEA03069E4220D183004FF00F0C0CFA2D
:1010100003F7BC4305FA03FC4CEA040491F803C04F
:10102000BCF1280F06D14FF0010C0CFA00FCC2F8FD
:1010300014C00AE091F803C0BCF1480F05D14FF08D
:10104000010C0CFA00FCC2F810C0401C0828D1D3D7
:101050001460B1F800C0BCF1FF0F34DD546800200B
:101060002EE000F1080C4FF0010808FA0CF3B1F87B
:1010700000C00CEA03069E4221D183004FF00F0C02
:101080000CFA03F7BC4305FA03FC4CEA040491F89C
:1010900003C0BCF1280F05D100F1080C08FA0CF8C8
:1010A000C2F8148091F803C0BCF1480F07D100F1D9
:1010B000080C4FF0010808FA0CF8C2F81080401C28
:1010C0000828CED35460BDE8F0814FF6FF7101804F
:1010D000022181700421C17070470246002093688C
:1010E0000B400BB1012000E00020704701468868EA
:1010F00080B2704702460020D3680B400BB101203C
:1011000000E0002070470146C86880B27047016166
:101110007047416170470AB1016100E04161704769
:10112000C16070474FF480320A43826181618261FD
:1011300082698269704702460020434B18684FF667
:101140008073184040EA021008433F4B1860704714
:101150003E49C8617047F0B50A46002300240021CB
:10116000002500F00046B6F1004F02D1364EF1697D
:1011700001E0354E7168C0F3034583B200F44016B8
:10118000B6F5401F08D121F070612F4E766826F029
:1011900070662D4F7E6012E000F48016B6F5801F59
:1011A00006D1032606FA05F4A14341F0706106E07A
:1011B000460D360103FA06F6B14341F0706122B1E3
:1011C000460D360103FA06F6314300F00046B6F14B
:1011D000004F02D11C4EF16101E01B4E7160F0BD69
:1011E00030B500228B071C0F0F2303FA04F2164BB5
:1011F00008338C1053F824309343134C08348D106B
:1012000044F8253023468C1053F824308C07240FE3
:1012100000FA04F423430C4C08348D1044F82530B4
:1012200030BD0A49DC310860704700000008014009
:10123000000C014000100140001401400018014062
:10124000001C01400020014000000140000020423D
:1012500010B50121080700F0F6F900214FF0805089
:1012600000F0F1F910BD2A49086270472849086169
:10127000704701460020274A106820F0E00008432C
:10128000106070472249A0310860704710B50246CF
:101290000020204B186820F00300104318601E4BFC
:1012A0001B6843F004031C4C2360012901D130BFAB
:1012B00000E020BF184B1B6823F00403164C23608A
:1012C00010BD1448006840F0040012490860084648
:1012D000006840F0020008600F48006840F0040019
:1012E0000D49086000BF00BF30BF704701460020B5
:1012F000084A52680A400AB1012000E00020704705
:101300000449096841EA8001024A116070470000FF
:1013100000000E420070004010ED00E0DF48006861
:1013200040F00100DD49086008464068DC4908409B
:10133000DA49486008460068DA490840D749086039
:101340000846006820F4802008600846406820F4C1
:10135000FE0048604FF41F0088607047CF4909685D
:1013600021F48031CD4A11601146096821F48021B1
:101370001160B0F5803F03D0B0F5802F0ED106E0AC
:10138000C649096841F48031C44A116007E0C34985
:10139000096841F4A021C14A116000E000BF00BF0C
:1013A000704710B501460022002300204A11012A8F
:1013B00002D1BA4C236806E0022A02D1B74C236A54
:1013C00001E0B64C636A01F01F02012494401C4006
:1013D0000CB1012000E0002010BD38B500200090C5
:1013E0000024002500BF3120FFF7DBFF05460098F1
:1013F000401C00900098B0F5A06F01D0002DF2D0F5
:101400003120FFF7CEFF08B1012400E00024204680
:1014100038BD01460020A14A106820F0F80040EADB
:10142000C10010607047A049086070470246002064
:101430009A4B586820F47C1042EA01031843974BFA
:101440005860704798490866704701460020934AE3
:10145000506820F003000843506070478F48406890
:1014600000F00C007047014600208C4A506820F0C4
:10147000F00008435060704701460020874A5068DA
:1014800020F4E06008435060704701460020834A22
:10149000506820F4605040EAC1005060704729B1A4
:1014A0007E4A527A02437D4B5A7204E07B4A527A5A
:1014B00082437A4B5A7270477B49D8310860704733
:1014C00001460020754A506820F4404008435060AF
:1014D00070470021714A20321170704A82F8201042
:1014E000012802D004280AD104E001216B4A2032ED
:1014F000117005E00521694A2032117000E000BF3B
:1015000000BF70476949086070476449096A014330
:10151000624A11627047654944390860704730B5C6
:1015200000210022002400235C4D6D6805F00C01B1
:1015300021B1042905D0082923D105E05C4D0560BF
:1015400022E05B4D05601FE0544D6D6805F470129C
:10155000524D6D6805F48034022505EB92421CB9AA
:10156000544D554305600BE04C4D6D6805F4003556
:101570001DB1504D5543056002E04D4D554305608A
:1015800002E04B4D056000BF00BF444D6D6805F0A3
:10159000F0010909484D6B5C0568DD4045603F4D31
:1015A0006D6805F4E061090A434D6B5C4568DD40F8
:1015B00085603A4D6D6805F46051C90A3E4D6B5C1B
:1015C0004568DD40C560354D6D6805F44041890BC7
:1015D0003A4D6B5CC568B5FBF3F5056130BD29B1CB
:1015E0002E4A526902432D4B5A6104E02B4A52693C
:1015F00082432A4B5A61704729B1284A92690243B3
:10160000264B9A6104E0254A92698243234B9A61F2
:10161000704729B1214AD2690243204BDA6104E0C4
:101620001E4AD26982431D4BDA61704729B11B4AB9
:10163000D2680243194BDA6004E0184AD268824348
:10164000164BDA60704729B1144A12690243134BF2
:101650001A6104E0114A12698243104B1A61704703
:1016600012494039086070470F49C86470470B49F8
:10167000C87170470948406A40F080700749486265
:10168000704701460020054A92680A400AB10120CD
:1016900000E0002070470149887270470010024046
:1016A0000000FFF8FFFFF6FE0000424280044242C5
:1016B00000127A0000093D001400002024000020E0
:1016C00010B50446FE48844208D10121C014FFF73A
:1016D000ADFF0021E014FFF7A9FFC4E0B4F1804F93
:1016E00008D101210846FFF7AEFF00210120FFF7D6
:1016F000AAFFB8E0F348844208D101210220FFF795
:10170000A2FF00210220FFF79EFFACE0EE488442DA
:1017100008D101210420FFF796FF00210420FFF7E4
:1017200092FFA0E0E948844208D101210820FFF798
:101730008AFF00210820FFF786FF94E0E4488442F6
:1017400008D101211020FFF77EFF00211020FFF7B4
:101750007AFF88E0DF48844208D101212020FFF78A
:1017600072FF00212020FFF76EFF7CE0DA48844200
:1017700008D101214014FFF759FF00216014FFF741
:1017800055FF70E0D548844209D10121C804FFF714
:101790004DFF00214FF40020FFF748FF63E0D048E1
:1017A000844209D101210805FFF740FF00214FF4D1
:1017B0008010FFF73BFF56E0CA48844209D101215F
:1017C0004805FFF733FF00214FF40010FFF72EFF0D
:1017D00049E0C548844208D101214020FFF733FF8A
:1017E00000214020FFF72FFF3DE0C048844208D190
:1017F00001218020FFF727FF00218020FFF723FF32
:1018000031E0BB48844208D101218015FFF71BFF5E
:101810000021A015FFF717FF25E0B648844209D143
:1018200001210804FFF702FF00214FF48030FFF789
:10183000FDFE18E0B048844209D101214804FFF7B9
:10184000F5FE00214FF40030FFF7F0FE0BE0AB484F
:10185000844208D101218804FFF7E8FE00214FF4FB
:101860008020FFF7E3FE10BD00220288944B9842CF
:101870000ED0994B98420BD0B0F1804F08D0914BCD
:10188000984205D0904B984202D0904B984204D198
:101890004FF68F731A404B881A438D4B984207D0EE
:1018A0008C4B984204D04FF6FF431A40CB881A4322
:1018B00002808B8883850B880385814B98420BD0EF
:1018C000854B984208D08B4B984205D08A4B984262
:1018D00002D08A4B984201D10B7A0386012383827E
:1018E000704770B5002400220023058C4FF6FE7669
:1018F00035400584028C8388048B4FF68F752C400D
:10190000B51E2C400D882C43751E2A400D892A4394
:101910004D882A436A4DA8420BD06F4DA84208D08B
:10192000744DA84205D0744DA84202D0734DA84210
:1019300013D14FF6F7752A404D892A434FF6FB75B0
:101940002A408D882A434FF6FF652B404FF6FF55FE
:101950002B408D892B43CD892B4383800483CD88F5
:101960008586028470BD70B5002400220023058C9A
:101970004FF6EF7635400584028C8388048B48F659
:10198000FF752C404FF6FF452C400D884FF6FF7633
:1019900006EA05252C434FF6DF752A400D8906EA35
:1019A00005152A434D8806EA05152A43444DA842E9
:1019B00002D0494DA8421DD14FF67F752A404D896E
:1019C0004FF6FF7606EA05152A434FF6BF752A4003
:1019D0008D8806EA05152A434FF6FF352B404FF256
:1019E000FF752B408D8906EA85052B43CD8906EAD4
:1019F00085052B4383800483CD880587028470BDD1
:101A000070B5002400220023058C4FF6FF66354098
:101A10000584028C8388848B4FF68F752C404FF69B
:101A2000FC752C400D882C434FF6FF552A400D893C
:101A30004FF6FF7606EA05252A434D8806EA052576
:101A40002A431F4DA84202D0234DA8421DD14FF278
:101A5000FF752A404D894FF6FF7606EA05252A4391
:101A60004FF6FF352A408D8806EA05252A434EF6B3
:101A7000FF752B404DF6FF752B408D8906EA051545
:101A80002B43CD8906EA05152B4383808483CD88BB
:101A90008587028470BD70B5002200230024058C68
:101AA0004EF6FF7635400584038C8488828B48F699
:101AB000FF752A404FF6FF452A400D8820E00000C0
:101AC000002C01400004004000080040000C0040D1
:101AD000001000400014004000340140004C014060
:101AE000005001400054014000180040001C00401C
:101AF00000200040004001400044014000480140F7
:101B00004FF6FF7606EA05252A434DF6FF752B4072
:101B10000D8906EA05352B434D8806EA05352B432A
:101B2000FA4DA84202D0FA4DA84208D14BF6FF75F3
:101B30002C408D894FF6FF7606EA85152C4384806C
:101B40008283CD88A0F84050038470BD828B4FF211
:101B5000FF331A408283828B4FF6FF7303EA01231F
:101B60001A4382837047F0B50C46154600220021C7
:101B70000026078C4EF6FF7C07EA0C070784828B51
:101B8000018C4FF6FF7707EA043640F6FF473A40EC
:101B90004FF6FF7707EA05273A434FF6FF7707EA44
:101BA00003373A43D94FB8420ED0D94FB8420BD081
:101BB000B0F1804F08D0D74FB84205D0D64FB842C9
:101BC00002D0D64FB84206D14DF6FF77394046F4E1
:101BD0008057394305E047F6FF57394044F48057B2
:101BE000394382830184F0BD828B4FF6F3731A4030
:101BF0008283828B0A4382837047F0B50C46154678
:101C0000002200210026078C4FF6FF6C07EA0C0724
:101C10000784828B018C4FF6FF7707EA04264FF684
:101C20000C773A404FF6FF7707EA03172F433A4302
:101C3000B64FB8420ED0B64FB8420BD0B0F1804F7D
:101C400008D0B44FB84205D0B34FB84202D0B34F1A
:101C5000B84206D14FF6FF57394046F480773943F2
:101C600005E04FF2FF57394044F4807739438283CF
:101C70000184F0BD028B4FF2FF331A400283028BC6
:101C80004FF6FF7303EA01231A4302837047F0B54E
:101C90000C461546002200210026078C4FF6EF7CEB
:101CA00007EA0C070784028B018C4FF6FF7707EADF
:101CB000041640F6FF473A404FF6FF7707EA03372E
:101CC0003A434FF6FF7707EA05273A438F4FB8426A
:101CD0000ED08F4FB8420BD0B0F1804F08D08D4F4F
:101CE000B84205D08C4FB84202D08C4FB84206D1D2
:101CF0004FF6DF77394046F01007394305E04FF6DD
:101D00005F77394044F01007394302830184F0BD06
:101D1000028B4FF6F3731A400283028B0A4302834D
:101D20007047F0B50C46154600220021068C4FF690
:101D3000FE773E400684028B018C4FF60C763240D3
:101D40007E1C06EA03162E433243704EB0420ED07C
:101D50006F4EB0420BD0B0F1804F08D06D4EB04204
:101D600005D06D4EB04202D06C4EB04206D14FF657
:101D7000FD76314044F00106314305E04FF6F5763B
:101D8000314044F00106314302830184F0BD70B557
:101D900005460C465D4885420ED05D4885420BD015
:101DA000B5F1804F08D05B48854205D05A4885423E
:101DB00002D05A48854200D100E000BF208850B9C7
:101DC0002389A28861882846FFF7ABFFE18828466F
:101DD000FFF79EFF25E0208804280AD12389A288E6
:101DE00061882846FFF753FFE1882846FFF742FF46
:101DF00017E0208808280AD12389A288618828460C
:101E0000FFF7FBFEE1882846FFF7EEFE09E0238995
:101E1000A28861882846FFF7A6FEE1882846FFF7DA
:101E200095FE70BD2DE9F04105460C4600260127C0
:101E3000608808B9022600E00026A088012801D1A8
:101E4000022700E001272088A0B92389A2886188A1
:101E50002846FFF766FFE1882846FFF759FF2389E8
:101E60003A4631462846FFF712FFE1882846FFF739
:101E700001FF13E02389A28861882846FFF707FF46
:101E8000E1882846FFF7F6FE23893A463146284680
:101E9000FFF747FFE1882846FFF73AFFBDE8F081EA
:101EA0000A884B881A438B881A43CB881A430B89BC
:101EB0001A434B891A438B891A43A0F84420704770
:101EC0004FF6FF71818000210180C1804180017245
:101ED00070470021018041808180C1800181418162
:101EE0008181C18170470021018041800121818071
:101EF0000021C180018170470021018041808180E3
:101F0000C18001814181818170470000002C014026
:101F1000003401400004004000080040000C004074
:101F200021B1028842F00102028004E002884FF6EB
:101F3000FE731A400280704731B1B0F8442042F479
:101F40000042A0F8442005E0B0F84420C2F30E029D
:101F5000A0F8442070471AB183890B43838102E0C3
:101F600083898B43838170478182704741EA0203F2
:101F7000A0F8483070471AB183890B43838102E08F
:101F800083898B438381704701894FF6F872114032
:101F9000018170470A46002101894FF68F7319406D
:101FA00011430181704730B504460D46294620464D
:101FB000FFF7F0FF208940F00700208130BD2DE9B8
:101FC000F04104460D4616461F46602D06D13B469D
:101FD000012231462046FFF75AFE05E03B4601222A
:101FE00031462046FFF79DFE29462046FFF7D2FFE7
:101FF000208940F007002081BDE8F08130B50C4613
:1020000000210189C9B24FF6FF7505EA0325154382
:1020100025432943018130BD2DE9F04105460E4697
:1020200017469846002443463A4631462846FFF76D
:10203000E5FF2C894FF6F870044044F007044FF692
:102040008F70044044F070042C81BDE8F081F0B53D
:1020500004460D4616461F463B4632462946204654
:10206000FFF7CCFF208940F480402081F0BD01853E
:10207000828270470A46002101884FF68F7319400B
:10208000114301807047F0B50C4615461E460021ED
:10209000002200230189028B038C4FF6F877394028
:1020A00021434FF6FC473A4040F201173A434FF6BE
:1020B000DD773B404FF6FF7707EA06172F433B4398
:1020C000018102830384F0BD0A460021018B4FF693
:1020D0008F7319401143018370470A460021018B19
:1020E00048F6FF7319404FF6FF7303EA02231943C2
:1020F000018370470A460021818B4FF68F73194088
:102100001143818370470A460021818B48F6FF7393
:1021100019404FF6FF7303EA022319438183704786
:1021200021B1028842F08002028004E002884FF66A
:102130007F731A400280704721B1828842F0040206
:10214000828004E082884FF6FB731A4082807047D9
:1021500021B1828842F00802828004E082884FF632
:10216000F7731A408280704721B1828842F00102E1
:10217000828004E082884FF6FE731A4082807047A6
:102180000A460021018B4FF6F77319401143018372
:1021900070470A460021018B4FF2FF7319404FF63A
:1021A000FF7303EA02231943018370470A460021A3
:1021B000818B4FF6F77319401143818370470A46AC
:1021C0000021818B4FF2FF7319404FF6FF7303EA32
:1021D00002231943818370470A460021018B4FF681
:1021E000FB7319401143018370470A460021018B9C
:1021F0004FF6FF3319404FF6FF7303EA02231943EA
:10220000018370470A460021818B4FF6FB7319400A
:102210001143818370470A460021818B4FF6FF33BB
:1022200019404FF6FF7303EA022319438183704775
:102230000A460021018B4FF67F7319401143018339
:1022400070470A460021018BC1F30E014FF6FF7360
:1022500003EA02231943018370470A460021818B58
:102260004FF67F7319401143818370470A4600215E
:10227000818BC1F30E014FF6FF7303EA022319436A
:10228000818370470A460021018C4FF6FD73194087
:102290001143018470470A460021018C4FF6F77301
:1022A00019401143018470470A460021018C4FF602
:1022B000DF7319404FF6FF7303EA021319430184D9
:1022C00070470A460021018C4FF67F7319404FF684
:1022D000FF7303EA02131943018470470A46002181
:1022E000018C4FF6FF5319404FF6FF7303EA0223A8
:1022F0001943018470470A460021018C4FF2FF7395
:1023000019404FF6FF7303EA022319430184704713
:102310000A460021018C4DF6FF7319404FF6FF73FA
:1023200003EA023319430184704730B500230124C6
:102330008C40A3B2048C9C430484048C02FA01F503
:10234000ADB22C43048430BD30B5002304248C404E
:10235000A3B2048C9C430484048C02FA01F5ADB250
:102360002C43048430BD70B5034600200024184679
:10237000183001258D40ACB21D8CA5431D8409B1D8
:10238000082909D100EB6100056825F0700505609A
:102390000568154305600EE00D1FC5F34E05284482
:1023A000056825F4E045056005684FF6FF7606EA06
:1023B00002263543056070BD21B1028842F0020259
:1023C000028004E002884FF6FD731A4002807047D5
:1023D00021B1028842F00402028004E002884FF634
:1023E000FB731A400280704721B1828842F080025C
:1023F000828004E082884FF67F731A4082807047A3
:1024000002884FF6F7731A40028002880A4302805E
:10241000704782884FF68F731A40828082880A4301
:102420008280704702894FF6F8731A400281028950
:102430000A430281704702894FF67F731A40028176
:1024400002890A4302817047818470478185704701
:10245000818670470187704781877047A0F84010D8
:10246000704702884FF6FF431A40028002880A43F1
:10247000028070470146888E70470146088F70477A
:102480000146888F70470146B1F840007047014609
:10249000888C70470146088D704702460020138AD9
:1024A0000B400BB1012000E000207047CA430282BC
:1024B000704730B50246002000230024158A05EA43
:1024C0000103958905EA010413B10CB1012000E074
:1024D000002030BDCA4302827047000010B5044698
:1024E000FB48844209D101218803FFF79FF80021AE
:1024F0004FF48040FFF79AF832E0F648844209D161
:1025000001214804FFF79FF800214FF40030FFF746
:102510009AF825E0F048844209D101218804FFF7A8
:1025200092F800214FF48020FFF78DF818E0EB4877
:10253000844209D10121C804FFF785F800214FF436
:102540000020FFF780F80BE0E548844208D1012124
:102550000805FFF778F800214FF48010FFF773F8B3
:1025600010BD2DE9F04786B005460E460024A24670
:1025700000BFA1460027B08900B100BF2F462C8ABA
:102580004CF6FF700440F08804432C82AC894EF670
:10259000F3100440B088318908437189084304432B
:1025A000AC81AC8A4FF6FF400440B0890443AC8252
:1025B00001A8FEF7B4FFC648874202D1DDF810A09B
:1025C00001E0DDF80CA0A88900F4004040B10AEB5E
:1025D000CA0000EB0A1031684900B0FBF1F807E0CF
:1025E0000AEBCA0000EB0A1031688900B0FBF1F871
:1025F0006420B8FBF0F004012009642101FB10897C
:10260000A88900F4004040B1322000EBC900B0FBC3
:10261000F1F000F00700044308E0322000EB09105D
:102620006421B0FBF1F000F00F0004432C8106B0F0
:10263000BDE8F0874FF41651016000218180C18010
:1026400001810C21418100218181704710B5024632
:102650000020108A4FF2FF0318400B884C88234358
:102660008C882343CC8823431843108210BD00215B
:10267000018041808180C180704721B1828942F40C
:102680000052828104E082894DF6FF731A408281F4
:102690007047F0B50346002400260025002040F6D0
:1026A0006A17B94200D100BF1846C1F3421401F0C5
:1026B0001F06012707FA06F5012C01D10C3004E0B2
:1026C000022C01D1103000E014301AB107682F43FA
:1026D000076002E00768AF430760F0BD1AB1838A64
:1026E0000B43838202E0838A8B4383827047028A92
:1026F0004FF6F0731A400282028A0A430282704740
:1027000082894FF2FF731A40828182890A43828153
:10271000704721B1828942F00202828104E08289FD
:102720004FF6FD731A4082817047028A4FF6DF73BD
:102730001A400282028A0A430282704721B1028A49
:1027400042F48042028204E0028A4BF6FF731A4090
:1027500002827047C1F30802828070470146888870
:10276000C0F308007047818941F001018181704701
:10277000028BD2B20283028B42EA012202837047AB
:10278000028B02F47F420283028B0A43028370476A
:1027900021B1828A42F02002828204E0828A4FF6CE
:1027A000DF731A408282704721B1828A42F01002A0
:1027B000828204E0828A4FF6EF731A408282704769
:1027C00021B1828A42F00802828204E0828A4FF6B6
:1027D000F7731A408282704721B1828942F4004225
:1027E000828103E08289C2F30E028281704721B1A7
:1027F000828A42F40062828204E0828A4FF2FF738E
:102800001A4082827047828A4FF6FB731A40828296
:10281000828A0A438282704721B1828A42F0020290
:10282000828204E0828A4FF6FD731A4082827047EA
:1028300002460020B1F5007F00D100BF13880B4095
:102840000BB1012000E00020704701F40072B2F5E6
:10285000007F00D100BFCA430280704770B50246B6
:10286000002400230025002040F66A16B14200D162
:1028700000BFC1F3421501F01F03012606FA03F35E
:10288000012D02D19689334006E0022D02D1168A2D
:10289000334001E0968A33400C12012606FA04F414
:1028A0001688344013B10CB1012000E0002070BD47
:1028B00010B50022002340F66A14A14200D100BFE7
:1028C0000A1201249440A3B2DC43048010BD00002E
:1028D000003801400044004000480040004C0040E7
:1028E000005000400EB501F039FE002000F048FC19
:1028F00001F0A1FC4FF4E13002F09CF8002001212E
:10290000CDE90001034602464FF4E131029012483E
:1029100000F0EEF8002000F033FC10210F48FEF725
:10292000F8FB0F4A918903231068142200F0A5FBDD
:102930000B4AD18903235068142200F09EFB00202B
:1029400002F030FF02F055FC04E0012400E0641CBA
:102950000C2CFCDBF9E700000050004000080140AF
:1029600048000020704700BFFEE700BFFEE700BF41
:10297000FEE700BFFEE7704770477047704710B52D
:1029800040F225514548FFF769FF00281AD002F0B0
:102990005DF843490870084600784249424A127877
:1029A000885441480078401C3F4908700846007828
:1029B000052808DD3D4801683DA003F007FB002025
:1029C0003949087069E036480078452865D13648AD
:1029D000007818B900203549086051E03248007885
:1029E000012805D12F48007830383049086047E089
:1029F0002D48007802280CD12A48407830382949DF
:102A00000978303901EB810100EB4100274908606A
:102A100036E025480078032812D122480078303863
:102A2000642148431F494978303901EB810100EBAB
:102A300041011C48C078303808441C4908601FE038
:102A40001948007804281BD11648007830384FF414
:102A50007A71484313494978303901EBC10202EBDE
:102A6000011100EB81010F488078303800EB8000C5
:102A700001EB40010B48C078303808440B4908602E
:102A8000002007490870084908700848016813A029
:102A900003F09CFA01201549087010BD0050004059
:102AA000290000202B0000203100002034000020ED
:102AB000706C6561736520736574206C6573732039
:102AC0007468616E2039393939452C207472792047
:102AD000616761696E210A0D00000000676574205E
:102AE0006474313A25640A0D000000002A000020B9
:102AF0002DE9FF4707460C4615461E46DDE90D9AAF
:102B0000DDF830800094ADF80450ADF80660ADF803
:102B100008800020ADF80C000C20ADF80A006946D2
:102B20003846FFF71EFDB9F1000F06D0012240F232
:102B300025513846FFF7ADFD05E0002240F2255152
:102B40003846FFF7A6FDBAF1000F06D0012240F289
:102B500027713846FFF79DFD05E0002240F22771FE
:102B60003846FFF796FD40213846FFF76EFE4FF4DA
:102B700080713846FFF769FE4FF400713846FFF761
:102B800064FE20213846FFF760FE01213846FFF73A
:102B900074FDBDE8FF8710B586B004460121C80466
:102BA000FEF737FD01211420FEF726FD4FF400400B
:102BB000ADF8140010208DF8170003208DF81600D2
:102BC00005A94448FEF7F6F94FF48060ADF814000B
:102BD00018208DF8170003208DF8160005A93E482F
:102BE000FEF7E8F94FF40060ADF8140004208DF80A
:102BF000170005A93848FEF7DDF901940020ADF86B
:102C00000800ADF80A00ADF80C00ADF810000C207B
:102C1000ADF80E0001A93148FFF7A3FC01212F48B0
:102C2000FFF72BFD06B010BD10B586B0044601219C
:102C30000805FEF7EEFC01213020FEF7DDFC4FF425
:102C40008050ADF8140018208DF8170003208DF87F
:102C5000160005A92048FEF7ADF90420ADF81400D0
:102C60008DF8170005A91E48FEF7A4F9019400206D
:102C7000ADF80800ADF80A00ADF80C00ADF8100092
:102C80000C20ADF80E0001A91648FFF76AFC0121DF
:102C90001448FFF7F2FC06B010BD70B504460D46AF
:102CA000E1B21048FFF756FD00BF80210D48FFF745
:102CB000BFFD0028F9D0204670BD10B5044600BF06
:102CC00020210848FFF7B4FD0028F9D00548FFF798
:102CD00045FD10BD0008014000100140004C0040BF
:102CE000001401400050004010B54FF43071FE4810
:102CF00003F0F7F8FD48FC49086080148881FC481F
:102D000048604015C881FA48886020200882F94848
:102D100088610F20C883F84848610C208883F348F5
:102D2000C8620221F0480187F14901638915418792
:102D3000EF49416310218187EE4941640E21A0F8DB
:102D40004A10ED4901640821A0F84810E748E64917
:102D500088650121E448A0F86410E549C165802137
:102D6000A0F86610E54901662021A0F86810E14945
:102D700001670521A0F87610DF49C1660421A0F89B
:102D80007410DE48D849C1F884008021D648A0F8E4
:102D90009010D749C0F888104021A0F89210D74968
:102DA000C0F88C100821A0F89410D249C0F89C10EB
:102DB0000321A0F8A210D049C0F898100021A0F873
:102DC000A010CE48C849C1F8B0004021C648A0F8BC
:102DD000BC10C649C0F8B4108915A0F8BE10C74988
:102DE000C0F8B8100421A0F8C010C249C0F8C8103B
:102DF0000221A0F8CE10C249C0F8C4100821A0F8E2
:102E0000CC10BA48B849C1F8DC004115B648A0F862
:102E1000E810B649C0F8E0108021A0F8EA10B749E0
:102E2000C0F8E4100221A0F8EC10B249C0F8F41088
:102E30000121A0F8FA10B249C0F8F0100421A0F85E
:102E4000F810AA48A849C1F808012021A648A0F80E
:102E50001411A649C0F80C114021A0F81611A74979
:102E6000C0F810110121A0F81811A249C0F82011D2
:102E70000021A0F82611A249C0F81C110021A0F8D9
:102E800024119A489849C1F8340110219648A0F8B5
:102E900040119A49C0F83811C914A0F84211944958
:102EA000C0F83C110121A0F844119249C0F84C111E
:102EB0000A21A0F852119349C0F848110C21A0F83A
:102EC00050118A488849C1F8600108218648A0F855
:102ED0006C118A49C0F864110915A0F86E11844973
:102EE000C0F868110221A0F870118249C0F8781169
:102EF0000B21A0F87E118349C0F874110821A0F8B5
:102F00007C117E487849C1F88C0141147648A0F8BC
:102F100098117A49C0F890114915A0F89A1174498E
:102F2000C0F894110421A0F89C117249C0F8A411B2
:102F30000C21A0F8AA117349C0F8A0110421A0F82F
:102F4000A8116E486849C1F8B80181146648A0F814
:102F5000C4116A49C0F8BC118915A0F8C6116449AA
:102F6000C0F8C0110821A0F8C8116249C0F8D011FA
:102F70000D21A0F8D6116349C0F8CC110021A0F8AA
:102F8000D41110BD10B501215F48FEF7E4F810BD63
:102F900010B5FEF7C3F94FF48030FEF7DFF9FEF706
:102FA0001CFA1020FDF7DCFC0220FDF7C5FC002018
:102FB000FEF759FA0020FEF768FA4FF48060FEF73A
:102FC0005BFA4FF4E0114FF48030FEF72FFA4FF424
:102FD0008040FEF775FA0120FEF734FA00BF392071
:102FE000FEF7DFF90028FAD00220FEF72EFA00BF24
:102FF000FEF734FA0828FBD10120FEF734F900204F
:10300000FEF780FA0020FDF740FC01213F48FEF763
:1030100000FB012142F63D20FEF7EEFA00214FF4BD
:103020008040FEF7E9FA00214FF4CC00FEF7F1FAF8
:1030300010BD08B54FF4E060FDF786F935208DF836
:10304000000004208DF8020000208DF8010001200E
:103050008DF803006846FDF77CF934208DF80000F8
:1030600007208DF8020000208DF8010001208DF866
:1030700003006846FDF76DF908BDF8B507460C4634
:1030800015461E46ADF800408DF802608DF80350DD
:1030900069463846FDF78EFFF8BD10B502230022C1
:1030A00010211648FFF7E9FF0223102251021048B1
:1030B000FFF7E3FF0223102291020D48FFF7DDFF27
:1030C00002231022D1020A48FFF7D7FF0223102261
:1030D00091020A48FFF7D1FF02231022042103487E
:1030E000FFF7CBFF032313E048000020000C014052
:1030F000001001400024014000340140000801405C
:1031000000080040002C0140000430000540181861
:1031100018224FF48061FE48FFF7AFFF032304221B
:103120005102FB48FFF7A9FF032318224FF48051F7
:10313000F748FFF7A2FF032304221146F548FFF7E3
:103140009CFF03231022D102F348FFF796FF0323CD
:1031500010229101F148FFF790FF03231022D101C3
:10316000EE48FFF78AFF032310225102EB48FFF7D6
:1031700084FF03231022D102E848FFF77EFF10BD31
:1031800010286FD2DFE800F0FDFCFBFED4B3916F96
:103190004C2A08F9F8F7F6F5DD49C96821F4005121
:1031A000DB4AD1601146C96841F48041D1601146C3
:1031B000C96821F40041D160D7490C31096821F474
:1031C0008041D54A0C321160D4490C31096821F094
:1031D0000401091DD14A0C321160FCE1CC49C968D7
:1031E00021F40051CA4AD1601146C96841F48041B6
:1031F000D1601146C96841F40041D160C6490C3123
:10320000096821F48041C44A0C321160C3490C3171
:10321000096821F00401091DC04A0C321160DAE18D
:10322000BB49C96821F40051B94AD1601146C96847
:1032300021F48041D1601146C96841F40041D16058
:10324000B5490C31096821F48041B34A0C32116050
:10325000B2490C31096821F00401091DAF4A0C3252
:103260001160B8E1B6E1AA49C96841F40051A84A21
:10327000D1601146C96841F48041D1601146C968E6
:1032800041F40041D160A4490C31096821F4804126
:10329000A14A0C321160A1490C31096821F00401E6
:1032A000091D9E4A0C32116095E19949C96841F4A3
:1032B0000051974AD1601146C96821F48041D1601C
:1032C0001146C96841F40041D16093490C31096845
:1032D00021F48041904A0C32116090490C31096808
:1032E00021F00401091D8D4A0C32116073E18849F7
:1032F000C96841F40051864AD1601146C96841F459
:103300008041D1601146C96821F40041D1608249F1
:103310000C31096841F480417F4A0C3211607F49C9
:103320000C31096821F004017C4A0C32116052E131
:103330007749C96821F40051754AD1601146C968BE
:1033400021F48041D1601146C96821F40041D16067
:1033500071490C31096841F480416F4A0C321160A7
:103360006E490C31096821F004016C4A0C3211607D
:1033700031E111E1F2E0D3E0A9E087E002E022E0F0
:1033800042E062E06249C96841F40051604AD1609C
:103390001146C96821F48041D1601146C96821F401
:1033A0000041D1605C490C31096841F480415A4ABE
:1033B0000C32116059490C31096821F00401574A57
:1033C0000C32116007E15249C96821F40051504A9A
:1033D000D1601146C96841F48041D1601146C96885
:1033E00021F40041D1604C490C31096841F480411D
:1033F000494A0C32116049490C31096821F0040135
:10340000464A0C321160E6E04149C96821F4005196
:103410003F4AD1601146C96821F48041D16011460C
:10342000C96841F40041D1603B490C31096841F45D
:103430008041394A0C32116038490C31096821F059
:103440000401364A0C321160C5E03149C96821F4E3
:1034500000512F4AD1601146C96841F48041D160C2
:103460001146C96841F40041D1602B490C3109680B
:1034700041F48041284A0C32116028490C31096816
:1034800021F00401254A0C321160A4E02049C968EA
:1034900041F400511E4AD1601146C96841F480418F
:1034A000D1601146C96841F40041D1601A490C311C
:1034B000096841F48041184A0C32116017490C31F7
:1034C000096821F00401154A0C32116083E01049AB
:1034D000C96841F400510E4AD1601146C96821F40F
:1034E0008041D1601146C96841F40041D1600A4968
:1034F0000C31096841F48041074A0C3211600749D8
:103500000C31096821F00401044A0C32116062E0B8
:10351000001001400014014000080140000C01406F
:10352000FE49C96841F40051FC4AD1601146C9689E
:1035300021F48041D1601146C96821F40041D16075
:10354000F749096821F48041F54A1160F549096895
:1035500021F00401091DF34A11603CE0EF49C968FC
:1035600041F40051ED4AD1601146C96841F48041EF
:10357000D1601146C96821F40041D160E849096869
:1035800021F48041E64A1160E649096821F004010E
:10359000091DE44A11601EE0E049C96821F40051A8
:1035A000DE4AD1601146C96821F48041D1601146DC
:1035B000C96821F40041D160D949096821F48041EA
:1035C000D74A1160D749096821F00401091DD54A7D
:1035D000116000E000BF00BF704730B587B00446FF
:1035E0000D462046FCF71EFF002001908DF80800D4
:1035F00001208DF809004FF4602003900020049012
:1036000001208DF8140001A92046FCF732FF0123A8
:103610001A4629462046FCF7C4FF01212046FCF744
:1036200054FF2046FCF773FF00BF2046FCF774FFF1
:103630000028FAD12046FCF779FF00BF2046FCF7AE
:103640007AFF0028FAD102212046FDF7F8F801217F
:103650002046FCF77AFF00BF2046FCF781FF0028D8
:10366000FAD100BF02212046FDF7E0F80028F9D08A
:103670002046FCF7FDFF0690BDF8180007B030BDEE
:1036800031B1042906D0082906D00C2909D105E05A
:10369000828607E0028705E0828703E0A0F84020E9
:1036A00000E000BF00BF704700B587B042F20F7066
:1036B000ADF814008F20ADF810000020ADF8160012
:1036C000ADF812008DF8180004A99748FEF7CCF861
:1036D00004A99648FEF7C8F840F2CF70ADF8140080
:1036E0000020ADF81000ADF81600ADF8120004A9E6
:1036F0008F48FEF7B9F86020ADF800000120ADF862
:1037000002000420ADF804000020ADF808000820F5
:10371000ADF80A004001ADF80C000020ADF80E0035
:1037200069468148FEF7DDF869467F48FEF71BF9D8
:1037300069467D48FEF764F969467B48FEF7ABF9B8
:1037400069467B48FEF7CDF869467948FEF70BF9E4
:1037500069467748FEF754F969467548FEF79BF9C4
:1037600069467248FEF7BDF869467048FEF7FBF8F7
:1037700069466E48FEF744F969466C48FEF78BF9D6
:1037800001216948FEF7CCFB01216748FEF7D4FB15
:1037900001216748FEF7C4FB01216548FEF7CCFB19
:1037A00001216248FEF7BCFB01216048FEF7C4FB23
:1037B00007B000BD10B586B0044601214802FDF7F0
:1037C0001BFF4FF40040FDF77BFE2046FCF72AFE6E
:1037D000002001908DF8080001208DF809004FF4B9
:1037E000602003900020049001208DF8140001A9AE
:1037F0002046FCF73EFE01212046FCF766FE2046EF
:10380000FCF785FE00BF2046FCF786FE0028FAD1B3
:103810002046FCF78BFE00BF2046FCF78CFE0028FC
:10382000FAD101212046FCF790FE06B010BD2DE92B
:10383000F0410746884614460025002606E041462A
:103840003846FFF7CAFE0544701CC6B2A642F6DB36
:10385000B5FBF4F080B2BDE8F08110B5002423E19F
:1038600004EB440202EBC402324B03EB8202918967
:1038700004EB440202EBC40253F822000223482264
:10388000FFF7FBFB04EB440202EBC402294B03EB02
:103890008202918904EB440202EBC40253F8220035
:1038A000FDF71BFC04EB440101EBC401214A02EBD0
:1038B000810181F8200004EB440202EBC4021D4B9D
:1038C00003EB8202918904EB440202EBC40253F839
:1038D000220002232822FFF7D0FB04EB440202EB74
:1038E000C402144B03EB8202918904EB440202EB05
:1038F000C40253F82200FDF7F0FB04EB440101EB96
:10390000C4010C4A02EB810181F8210004EB44025E
:1039100002EBC402074B03EB82020DE000100140F2
:103920000C0801400C0C0140002C01400034014007
:103930000008004048000020D18904EB440202EB5B
:10394000C40203EB8202012350684822FFF795FB73
:1039500004EB440202EBC402FE4B03EB8202D1896A
:1039600004EB440202EBC40203EB82025068FDF751
:10397000B4FB04EB440101EBC401F64A02EB810104
:1039800081F8220004EB440202EBC402F14B03EB8A
:103990008202D18904EB440202EBC40203EB8202EF
:1039A000012350682822FFF768FB04EB440202EB76
:1039B000C402E84B03EB8202D18904EB440202EB20
:1039C000C40203EB82025068FDF787FB04EB44015D
:1039D00001EBC401DF4A02EB810181F8230004EB13
:1039E000440202EBC402DB4B03EB8202118A04EBBC
:1039F000440202EBC40203EB82020223906800221D
:103A0000FFF73BFB04EB440202EBC402D14B03EB98
:103A10008202917F04EB440202EBC40203EB8202B8
:103A200090690422FFF703FF04EB440101EBC4019A
:103A3000C84A02EB8101888404EB440000EBC40017
:103A4000114601EB8000808C40F6AA21884209DBF8
:103A5000022004EB440101EBC40102EB810181F877
:103A6000280020E004EB440000EBC400B94901EB5E
:103A70008000808C40F2555188420ADB012004EB23
:103A8000440101EBC401B34A02EB810181F8280033
:103A900009E0002004EB440101EBC401AD4A02EB54
:103AA000810181F82800641C0B2CFFF6D9AE00249C
:103AB00045E0E0B2FFF764FB04221146A648FFF799
:103AC000B6FE04EB440101EBC401A24A02EB810102
:103AD000C88404EB440000EBC400114601EB8000F5
:103AE000C08CB0F5E26F09DD022004EB440101EB6C
:103AF000C40102EB810181F829001FE004EB4400BE
:103B000000EBC400934901EB8000C08CB0F5627FEC
:103B10000ADD012004EB440101EBC4018D4A02EBF4
:103B2000810181F8290009E0002004EB440101EB48
:103B3000C401884A02EB810181F82900641C102C21
:103B4000B7DB10BD0020EAE200EB400101EBC00151
:103B5000804A02EB810191F8201000297DD100EB11
:103B6000400101EBC00102EB810191F82210002914
:103B7000F4D100EB400101EBC00102EB810191F8AF
:103B80002810E1B900EB400101EBC00102EB81011B
:103B900091F8291099B9012100EB400202EBC00213
:103BA0006C4B03EB820282F82A10002100EB4002EA
:103BB00002EBC00203EB820282F82B10AEE200EBB4
:103BC000400101EBC001634A02EB810191F828102A
:103BD000E9B900EB400101EBC00102EB810191F872
:103BE0002910012913D1022100EB400202EBC0028F
:103BF000584B03EB820282F82A10002100EB4002AE
:103C000002EBC00203EB820282F82B1086E200EB8B
:103C1000400101EBC0014F4A02EB810191F82810ED
:103C2000F9B900EB400101EBC00102EB810191F811
:103C30002910022915D1032100EB400202EBC0023A
:103C4000444B03EB820282F82A10002100EB400271
:103C500002EBC00203EB820200E0FCE082F82B10D2
:103C60005CE200EB400101EBC0013A4A02EB81014A
:103C700091F8281001291CD100EB400101EBC00193
:103C800002EB810191F8291099B9042100EB40025F
:103C900002EBC0022F4B03EB820282F82A100021B4
:103CA00000EB400202EBC00203EB820282F82B1011
:103CB00034E200EB400101EBC001264A02EB810136
:103CC00091F8281001291DD100EB400101EBC00142
:103CD00002EB810191F82910012913D1052100EB94
:103CE000400202EBC0021B4B03EB820282F82A1057
:103CF000002100EB400202EBC00203EB820282F8DB
:103D00002B100BE200EB400101EBC001114A02EB6A
:103D1000810191F82810012923D100EB400101EB2A
:103D2000C00102EB810191F82910022919D1062165
:103D300000EB400202EBC002064B03EB820282F86A
:103D40002A10002100EB400202EBC00203EB8202CA
:103D500004E00000480000200024014082F82B10FD
:103D6000DCE100EB400101EBC001FD4A02EB810107
:103D700091F8281002291CD100EB400101EBC00191
:103D800002EB810191F8291099B9072100EB40025B
:103D900002EBC002F24B03EB820282F82A100021F0
:103DA00000EB400202EBC00203EB820282F82B1010
:103DB000B4E100EB400101EBC001E94A02EB8101F3
:103DC00091F8281002291DD100EB400101EBC00140
:103DD00002EB810191F82910012913D1082100EB90
:103DE000400202EBC002DE4B03EB820282F82A1093
:103DF000002100EB400202EBC00203EB820282F8DA
:103E00002B108BE100EB400101EBC001D44A02EB27
:103E1000810191F828100229A2D100EB400101EBA9
:103E2000C00102EB810191F82910022998D10921E2
:103E300000EB400202EBC002C94B03EB820282F8A6
:103E40002A10002100EB400202EBC00203EB8202C9
:103E500082F82B1062E100EB400101EBC001C04A87
:103E600002EB810191F82010012964D100EB40019F
:103E700001EBC00102EB810191F82210D9BB00EBEC
:103E8000400101EBC00102EB810191F8291099B9C1
:103E90000A2100EB400202EBC002B14B03EB8202AD
:103EA00082F82A10002100EB400202EBC00203EB73
:103EB000820282F82B1031E100EB400101EBC001DE
:103EC000A74A02EB810191F82910012914D10B2195
:103ED00000EB400202EBC002A14B03EB820282F82E
:103EE0002A10002100EB400202EBC00203EB820229
:103EF00082F82B1012E11EE000EB400101EBC00143
:103F0000974A02EB810191F829100229A2D10C21D4
:103F100000EB400202EBC002914B03EB820282F8FD
:103F20002A10002100EB400202EBC00203EB8202E8
:103F300082F82B10F2E000EB400101EBC001884A4F
:103F400002EB810191F82010E9BB00EB400101EB8D
:103F5000C00102EB810191F8221001295CD100EB34
:103F6000400101EBC00102EB810191F8291099B9E0
:103F70000D2100EB400202EBC002794B03EB820201
:103F800082F82A10002100EB400202EBC00203EB92
:103F9000820282F82B10C1E000EB400101EBC0016E
:103FA0006F4A02EB810191F82910012915D10E21E8
:103FB00000EB400202EBC002694B03EB820282F885
:103FC0002A10002100E027E000EB400202EBC002D3
:103FD00003EB820282F82B10A0E000EB400101EB22
:103FE000C0015F4A02EB810191F82910022912D128
:103FF0000F2100EB400202EBC002594B03EB82029F
:1040000082F82A10002100EB400202EBC00203EB11
:10401000820282F82B1081E000EB400101EBC0012D
:104020004F4A02EB810191F82010012964D100EB85
:10403000400101EBC00102EB810191F8221001293E
:104040005AD100EB400101EBC00102EB810191F874
:10405000291099B9102100EB400202EBC002404B3D
:1040600003EB820282F82A10002100EB400202EBEF
:10407000C00203EB820282F82B104FE000EB4001FC
:1040800001EBC001364A02EB810191F829100129A8
:1040900013D1112100EB400202EBC002304B03EBC5
:1040A000820282F82A10002100EB400202EBC002DB
:1040B00003EB820282F82B1030E000EB400101EBB1
:1040C000C001274A02EB810191F82910022925D16C
:1040D000122100EB400202EBC002214B03EB8202F3
:1040E00082F82A10002100EB400202EBC00203EB31
:1040F000820282F82B1011E0002100EB400202EB5B
:10410000C002174B03EB820282F82A1000EB400238
:1041100002EBC00203EB820282F82B10401C0B283A
:10412000FFF612AD0E4991F80D12022904D11322A7
:104130000B4981F80E2209E0002100EB400202EB5E
:10414000C002074B03EB820282F82A10044991F85F
:104150003912022906D11422014981F83A220BE0D2
:1041600048000020002100EB400202EBC002F94BA6
:1041700003EB820282F82A107047012802D002283D
:1041800002D100E000E000BF00BF704738B5044630
:10419000E0B2FEF7F5FF022310221146EE48FEF7CB
:1041A0006CFF1021EC48FCF7B4FF04EB440202EB77
:1041B000C402E84B03EB8202918904EB440202EB58
:1041C000C40253F8220003231422FEF756FF04EB27
:1041D000440202EBC402DF4B03EB8202D18904EB01
:1041E000440202EBC40203EB820203235068142250
:1041F000FEF743FF234602220021684601F0E0FA61
:1042000005461021D448FCF782FF611CC8B2FEF7B6
:10421000B7FF022300221021CF48FEF72EFF15B969
:104220004FF0FF3038BD9DF800009DF801100844A4
:1042300005022846F6E710B5002487E104EB4400A8
:1042400000EBC400C34901EB800090F82A0000286D
:104250007EDD04EB440000EBC40001EB800090F82D
:104260002A00132875D2DFE800F0740A1D56B8DF63
:10427000FEB9FDFCFBFAF9F8F7F6F5F4F30004EBF0
:10428000440202EBC402B34B03EB8202918904EBBC
:10429000440202EBC40253F8220001231022FEF76D
:1042A000ECFE51E104EB440202EBC402A94B03EB28
:1042B0008202918904EB440202EBC40253F822000B
:1042C00001231022FEF7D9FE04EB440202EBC402E4
:1042D000A04B03EB8202118A04EB440202EBC402FE
:1042E00003EB8202012390681022FEF7C6FE04EB66
:1042F000440202EBC402974B03EB8202D18904EB28
:10430000440202EBC40203EB820201235068102234
:10431000FEF7B3FE18E104EB440202EBC4028D4B3E
:1043200003EB8202918904EB440202EBC40253F8CE
:10433000220001231022FEF7A0FE04EB440202EB50
:10434000C402844B03EB8202118A04EB440201E0B5
:10435000FBE0F8E002EBC40203EB82020123906869
:104360001022FEF78AFE04EB440202EBC402794BF2
:1043700003EB8202D18904EB440202EBC40203EB9B
:104380008202012350681822FEF777FE40F69F70E4
:1043900004EB440101EBC4016E4A02EB810149695F
:1043A0008885012004EB440101EBC40102EB81018B
:1043B0004969088504EB440202EBC402654B03EB38
:1043C0008202918B04EB440202EBC40203EB8202F3
:1043D00050690022FFF754F9B6E000BF04EB440235
:1043E00002EBC4025B4B03EB8202D18904EB440273
:1043F00002EBC40203EB8202012350681022FEF795
:104400003CFE04EB440202EBC402524B03EB82027B
:10441000918904EB440202EBC40253F82200012309
:104420001022FEF72AFE8FE004EB440202EBC402E6
:10443000484B03EB8202D18904EB440202EBC40235
:1044400003EB8202012350681822FEF716FE0BE0F0
:1044500062E036E031E04BE049E02DE046E044E048
:104460002EE02CE02AE026E042F20F7004EB44013B
:1044700001EBC401374A02EB8101496988858F202D
:1044800004EB440101EBC40102EB81014969088599
:1044900004EB440202EBC4022E4B03EB8202918B2D
:1044A00004EB440202EBC40203EB820250690022D7
:1044B000FFF7E6F848E000BF00BF45E044E043E016
:1044C00000BF04EB440202EBC402224B03EB820266
:1044D000118A04EB440202EBC40203EB82020223C2
:1044E00090680022FEF7C9FD2EE000BF00BF00BFAC
:1044F00004EB440202EBC402164B03EB8202118A66
:1045000004EB440202EBC40203EB82020223906834
:104510000422FEF7B2FD17E02046FFF737FE04EB5A
:10452000440101EBC4010B4A02EB810181F82B002D
:1045300004EB440101EBC40102EB810191F82B0073
:10454000FFF71BFE00E000BF00BF641C0B2CFFF652
:1045500075AE10BD480000200008014010B5FEF700
:10456000C3FBFEF715FDFEF764FDFEF796FDFFF7B2
:104570009BF83448FFF71EF910BD30B587B00546EB
:104580000C464FF6FF70ADF808004720ADF8040068
:104590000020ADF80A00ADF8060001A92846FDF795
:1045A00063F9ADF810400020ADF812000120ADF81D
:1045B00014000020ADF81600ADF8180004A9284634
:1045C000FDF7E5FB24B9012203212846FDF7C3FCD2
:1045D000042C04D1012205212846FDF7BCFC082C3F
:1045E00004D1012209212846FDF7B5FC0C2C04D189
:1045F000012211212846FDF7AEFC01212846FDF7D6
:104600008FFC07B030BD38B504464FF4E060FBF7CF
:104610009BFEE0B28DF8000000208DF80100032021
:104620008DF8020001208DF803006846FBF791FE2B
:1046300038BD01B502E00098401E009000980028A7
:10464000F9D108BD0024014070B504460D46002C88
:1046500029DD0C2C27DA9DB9621E02EB420303EB25
:10466000C202F74B03EB82029189621E02EB420306
:1046700003EBC202F24B53F82200FCF74AFD12E0B2
:10468000621E02EB420303EBC202ED4B03EB82021C
:104690009189621E02EB420303EBC202E84B53F81E
:1046A0002200FCF734FD70BD38B50446002C1FDD38
:1046B0000C2C1DDA621E02EB420303EBC202E04B3C
:1046C00003EB8202D18B621E02EB420303EBC202B8
:1046D000DB4B03EB820290690422FFF7A8F880B25B
:1046E0000090BDF8000080100090BDF8000038BDBB
:1046F0000020FCE710B50446002C16DD0C2C14DA63
:10470000621E02EB420303EBC202CD4B03EB8202BB
:10471000118A621E02EB420303EBC202C84B03EB99
:1047200082029068FCF7D9FC10BD0020FCE770B550
:104730000446002C1CDD0C2C1ADA621E02EB42032C
:1047400003EBC202BE4B03EB8202118A621E02EB34
:10475000420303EBC202BA4B03EB82029068FCF700
:10476000BCFC05460DB1002500E00125284670BDC2
:104770004FF0FF30FBE710B50446621E02EB420328
:1047800003EBC202AE4B03EB82029189621E02EB85
:10479000420303EBC202AA4B53F82200FCF7B9FC18
:1047A000621E02EB420303EBC202A54B03EB820243
:1047B000118A621E02EB420303EBC202A04B03EB21
:1047C00082029068FCF7A5FC10BD70B504460D464A
:1047D00035BB621E02EB420303EBC202984B03EBB4
:1047E00082029189621E02EB420303EBC202944BE8
:1047F00053F82200FCF78DFC621E02EB420303EB30
:10480000C2028F4B03EB8202118A621E02EB42034B
:1048100003EBC2028A4B03EB82029068FCF779FC3F
:10482000002D41DA684200EB80000221C1EB8006D6
:10483000621E02EB420303EBC202814B03EB8202D6
:104840009189621E02EB420303EBC2027C4B53F8D8
:104850002200FCF75CFC621E02EB420303EBC20287
:10486000774B03EB8202118A621E02EB420303EBD9
:10487000C202734B03EB82029068FCF74AFC621E93
:1048800002EB420303EBC2026D4B03EB8202918BFE
:10489000621E02EB420303EBC202694B03EB82028E
:1048A00050693246FEF7ECFE002D40DD05EB850039
:1048B0000221C1EB8006621E02EB420303EBC2023F
:1048C0005F4B03EB82029189621E02EB420303EB12
:1048D000C2025B4B53F82200FCF71BFC621E02EB8A
:1048E000420303EBC202564B03EB8202118A621EA3
:1048F00002EB420303EBC202514B03EB82029068CE
:10490000FCF705FC621E02EB420303EBC2024C4BB8
:1049100003EB8202918B621E02EB420303EBC202A5
:10492000474B03EB820250693246FEF7A9FE70BD89
:1049300010B500242CE004EB440000EBC400404917
:1049400001EB800090F82A00042820D104EB4402F7
:1049500002EBC4020B4603EB8202918904EB440292
:1049600002EBC40253F82200FCF7D3FB04EB440231
:1049700002EBC402324B03EB8202118A04EB4402C5
:1049800002EBC40203EB82029068FCF7C2FB641CDA
:104990000B2CD0DB10BD70B504460D4605F1FA06B0
:1049A000621E02EB420303EBC202254B03EB8202C1
:1049B000918B621E02EB420303EBC202204B03EB1E
:1049C000820250693246FEF75BFE70BD08B50F20CB
:1049D000FEF7D6FB0223002210211A48FEF74DFBFA
:1049E000042211461848FEF722FF80B20090BDF85D
:1049F0000000B0F5627F01DA012008BD0020FCE76D
:104A000008B50E20FEF7BCFB0223002210210D4842
:104A1000FEF733FB042211460B48FEF708FF80B275
:104A20000090BDF80000B0F5627F01DA012008BDFA
:104A30000020FCE710B504462046FEF7F5F810BD4F
:104A400048000020000801400024014010B540F259
:104A500025512748FDF702FF20B12548FDF77EFECE
:104A6000C0B210BD00BFFCE710B504462146204887
:104A7000FDF770FE00BF80211D48FDF7D9FE00281C
:104A8000F9D010BD70B50546002403E0285DFFF79E
:104A9000EBFF641C284601F02FFAA042F6DC70BD43
:104AA00010B504462046FEF776F84FF40041114851
:104AB000FCF72FFB10BD10B50F48FDF74FFE10BDE2
:104AC00010B504464FF400410A48FCF720FBA1B2A0
:104AD0000948FDF73FFE00BF80210748FDF7A8FE0B
:104AE0000028F9D04FF400410248FCF712FB10BD3A
:104AF0000050004000080140004C004010B5F9A0F3
:104B000001F064FA00240CE004EB440000EBC40064
:104B1000F74A02EB800090F82010F6A001F056FA58
:104B2000641C0B2CF0DBF4A001F050FAF3A001F0B0
:104B30004DFA00240CE004EB440000EBC400EC4A06
:104B400002EB800090F82110EAA001F03FFA641C0B
:104B50000B2CF0DBE8A001F039FAEBA001F036FAFB
:104B600000240CE004EB440000EBC400E04A02EB3C
:104B7000800090F82210DFA001F028FA641C0B2CB2
:104B8000F0DBDDA001F022FADCA001F01FFA002426
:104B90000CE004EB440000EBC400D54A02EB8000BB
:104BA00090F82310D3A001F011FA641C0B2CF0DB59
:104BB000D1A001F00BFAD7A001F008FA00240CE014
:104BC00004EB440000EBC400C94A02EB800090F8FB
:104BD0002910C8A001F0FAF9641C102CF0DBC6A063
:104BE00001F0F4F9CEA001F0F1F900240CE004EB9F
:104BF000440000EBC400BE4A02EB800090F828108D
:104C0000BCA001F0E3F9641C0B2CF0DBBAA001F0AE
:104C1000DDF9C6A001F0DAF900240CE004EB440051
:104C200000EBC400B24A02EB800090F82A10C2A048
:104C300001F0CCF9641C0D2CF0DBAFA001F0C6F93B
:104C4000BF48FFF7F6FC10BD10B504460121204611
:104C5000FFF7FAFCBB48FFF7ECFC00212046FFF70A
:104C6000F3FCB848FFF7E5FC10BD70B504462046DC
:104C7000FFF71AFD05462946B3A001F0A7F9FF206A
:104C8000FFF7D7FC70BD70B504462046FFF732FD34
:104C900005462946AEA001F099F9FF20FFF7C9FCAF
:104CA00070BD10B5FFF792FE04462146ABA001F09F
:104CB0008DF9FFF7A5FE04462146ACA001F086F968
:104CC00010BD10B50446FA212046FFF764FE10BD62
:104CD00010B540F22551A948FDF7C0FD28B1FFF7F6
:104CE000B5FE04460120A6490870A54800780128B1
:104CF00005D10020A2490870E0B2FFF7B5FE10BD53
:104D000010B50446FFF762FE012807D16421204652
:104D1000FFF75BFD4FF6FF70FFF78BFCFFF770FEB0
:104D2000012801D1FFF704FE10BD10B50446FFF7BE
:104D30004DFE012808D16FF063012046FFF745FDC5
:104D40004FF6FF70FFF775FCFFF75AFE012802D1FE
:104D50002046FFF710FD10BD30B589B0002462E099
:104D600004EB440000EBC400614901EB800090F8C3
:104D70002B0004EB440101EBC4015D4A02EB81010D
:104D800091F82A1004EB440202EBC402584B03EBE7
:104D9000820292F8292004EB440303EBC403544D30
:104DA00005EB830393F82830CDE90432CDE90610F2
:104DB00004EB440000EBC400294601EB8000C18CE9
:104DC00004EB440000EBC4002A4602EB8000808C18
:104DD00004EB440202EBC4022B4603EB820292F87E
:104DE000232004EB440303EBC40305EB830393F894
:104DF0002230CDE90032CDE9020104EB440000EBA2
:104E0000C400294601EB800090F8213004EB4400F7
:104E100000EBC40001EB800090F8202021465948A7
:104E200001F0D4F8641C0D2C9ADB09B030BD0020D1
:104E300000BF02E000BF00BF401C0B28FADB704738
:104E400070B505460E46002411E004EB440101EB69
:104E5000C401274A02EB810181F82A5004EB440186
:104E600001EBC40102EB810181F82B60641C0B2C67
:104E7000EBDBFFF7E0F970BD002000BF00E0401C55
:104E80000B28FCDB704740A001F0A0F844A001F023
:104E90009DF84AA001F09AF84FA001F097F855A0AC
:104EA00001F094F85BA001F091F862A001F08EF897
:104EB0000020674908709BE16548007837280AD0D0
:104EC0000ADC332809D009DC20B1312807D0322888
:104ED00006D10EE1D4E04BE1C3E010E1BAE002E11B
:104EE00034E100004F5554C9CFC0ADA3BA00000053
:104EF00048000020202564000A0A00004F5554CFC6
:104F0000C2C0ADA3BA00000054494DC9CFC0ADA383
:104F1000BA00000045585F41442020A3BA000000B9
:104F2000524A5F41442020A3BA0000004D5F4E5515
:104F30004D2020A3BA00000020256420200000009E
:104F4000FFFF5F00FFFF0F0025642020000000002E
:104F5000CAFDD7D6C1BF2025640A00006C656674FF
:104F6000206B6579202564200A0000006D69646467
:104F7000206B6579202564200A0000000050004065
:104F8000280000207064000868656C7020202020D4
:104F9000202020202020203A20203F20200A0D0021
:104FA0007363616E20746573742020202020203A82
:104FB000202027312720200A0D0000006A75646731
:104FC0006520746573742020202020203A2020273B
:104FD000322720200A0D0000696E707574207465F8
:104FE000737420202020203A202027332720200AF5
:104FF0000D0000006D6F746F207465737420666F10
:105000007277617264203A20202027362720200AF8
:105010000D0000006D6F746F2074657374207265ED
:105020007665727365203A20202027372720200AD2
:105030000D00000067657420706F727420737461D6
:105040007465203A202027612720200A0D000000E7
:105050002900002034285FD035286AD0362875D141
:1050600079E0612873D006DC382871D0392870D0F7
:105070003F28F4D105E062286CD06328EFD1AAE084
:10508000B5E0AFF2FC0000F0A1FFAFF2EC0000F0E1
:105090009DFFAFF2D80000F099FFAFF2C40000F01E
:1050A00095FFDEA000F092FFE3A000F08FFFAFF2CB
:1050B000BC0000F08BFFAFF2A40000F087FFE5A07A
:1050C00000F084FFEBA000F081FFAFF2980000F049
:1050D0007DFFF0A000F07AFFF4A000F077FF002041
:1050E000F849087083E0FEF7B8FB0020F549087026
:1050F0007DE0FEF727FD0020F249087077E0F2A07E
:1051000000F064FF00210A20FFF79AFEFFF78FFEF0
:105110000020EC4908706AE0EFA000F057FF002182
:105120000120FFF78DFEFFF782FE0020E5490870A1
:105130005DE0EEA000F04AFF00210120FFF780FEB5
:10514000FFF775FE0020DF49087050E04BE036E0C5
:105150001BE027E039E0EAA000F038FF002103203F
:10516000FFF76EFEFFF788FE0020D64908703EE08C
:10517000E9A000F02BFF00210320FFF761FEFFF7FD
:1051800056FE0020CF49087031E0E9A000F01EFF74
:1051900000210520FFF754FEFFF76EFE0020C949ED
:1051A000087024E0E8A000F011FF00210520FFF7BF
:1051B00047FEFFF73CFE0020C249087017E0FFF7EA
:1051C000CBFD0020BF49087011E0FDF7DBFE002099
:1051D000BC4908700BE00121E148FBF7BCFF00204F
:1051E000B849087003E00020B649087000BF00BF4E
:1051F00062E608B5DBA000680090DBA000F0E6FEE8
:10520000E9A000F0E3FE0020AE4908705DE2AD4881
:105210000078382876D011DC34284CD007DCF0B187
:10522000312827D032282FD033286CD136E03528CA
:105230004ED0362859D03728F7D165E0622870D093
:1052400006DC39287ED03F280AD06128EDD186E0DF
:10525000632868D0642867D06528E6D105E233E288
:10526000D6A000F0B3FED0A000F0B0FE002095491B
:10527000087029E2AFF2D82000F0A8FEFEF7EDFAA0
:105280000020904908701FE2AFF2D02000F09EFE8F
:10529000FEF758FC00208B49087015E28AA000F048
:1052A00095FE00210A20FFF7CBFDFFF7C0FD00208F
:1052B0008449087008E288A000F088FE00210120DF
:1052C000FFF7BEFDFFF7B3FD00207E490870FBE14C
:1052D00086A000F07BFE00210120FFF7B1FDFFF763
:1052E000A6FD002077490870EEE185A000F06EFE73
:1052F00000210320FFF7A4FDFFF7BEFD0020714948
:105300000870E1E111E0DBE183A000F05FFE002125
:105310000320FFF795FDFFF78AFD0020694908701B
:10532000D2E126E00EE02DE037E081A000F04EFE55
:1053300000210520FFF784FDFFF79EFD0020614955
:105340000870C1E180A000F041FE00210520FFF7B8
:1053500077FDFFF76CFD00205A490870B4E1AFF209
:105360002C3000F033FEFFF7F7FC002055490870A1
:10537000AAE148A000F02AFEFDF704FE00205149F2
:105380000870A1E149A000F021FE01217448FBF75B
:10539000E2FE00204B49087096E100204949087060
:1053A0008CA000F013FE85A000F010FE00208F49B5
:1053B000087048708870C87008718D4908708D49F0
:1053C00008708D49086000BF8A4800780028FBD02B
:1053D0008948016889A000F0F9FD0020FDF7D0FEA2
:1053E00010218A48FBF795FE894A918903231068AA
:1053F0001422FDF742FE864AD18903235068142205
:10540000FDF73BFE7C480078784908707A480088B0
:10541000000A4870084602784178FBE0646967201A
:105420006F757420312074657374203A20202734FE
:105430002720200A0D000000646967206F75742022
:10544000302074657374203A202027352720200AE5
:105450000D000000736572766F20746573742066AA
:105460006F7277617264203A202027382720200A43
:105470000D000000736572766F207465737420727E
:10548000657665727365203A202027392720200A27
:105490000D0000006A7461672072656C6561736558
:1054A000203A202027622720200A0D006A746167B5
:1054B00020656E61626C65203A20202763272020DA
:1054C0000A0D000029000020696E70757420746553
:1054D0007374200A0D000000646967206F757420E2
:1054E00020312074657874200A0D000064696720FB
:1054F0006F75742020302074657874200A0D0000C8
:105500006D6F746F207465737420666F727761724B
:1055100064200A0D000000006D6F746F20746573C5
:10552000742072657665727365200A0D00000000B4
:10553000736572766F207465737420666F7277611D
:105540007264200A0D000000736572766F20746526
:1055500073742072657665727365200A0D00000011
:1055600000013000EA73655A69326320777269740A
:1055700065203A20202764272C20736574206461FD
:1055800074612072616E673A2039393939452C20AF
:10559000706C656173652077697468204520656E5D
:1055A00064200A0D000000006932632072656164A6
:1055B000203A202027652720200A0D006932632029
:1055C0007772697465203A202027642720200A0D0D
:1055D000000000006932632077726974652061748D
:1055E00020706F727431200A0D0000002B00002023
:1055F000310000202A000020340000207365742050
:1056000069643A2564200A0D00000000000801408A
:105610004800002038A000F0D9FC002302221946DF
:105620003D4800F014F904461CB93CA000F0CEFC43
:105630000DE0404800F075F93E4800F072F9002096
:10564000FEF7A4FD044621463BA000F0BFFC00206D
:105650003149087048708870C87008713A490870FC
:105660003A4908703A4908602EE03AA000F0AEFCD2
:10567000AFF2CC0000F0AAFC10213C48FBF749FD3A
:105680003B4A9189032310681422FDF7F6FC384A3F
:10569000D189032350681422FDF7EFFC0020FEF7A8
:1056A00075FD0446002C03DA32A000F08FFC03E005
:1056B000214636A000F08AFC00202449087003E04F
:1056C00000202249087000BF00BFA0E510B5FFF719
:1056D00015FA0B20FFF7B8FA0A20FFF7D4FAFFF704
:1056E000E0FA0920FFF7EDFA0820FFF709FB032095
:1056F000FFF71BFB10BD000068696768203862690E
:10570000743A25642C206C6F7720386269743A25CE
:1057100064200A0D000000002B00002065655F5723
:105720007269746542797465732065727220200A0B
:105730000D000000FFFF0F00726561642069643A8C
:1057400020256420200A0D003100002029000020BF
:105750003400002069326320726561642061742026
:10576000706F727430200A0D0000000000080140C4
:105770004800002065655F52656164427974657315
:105780002065727220200A0D0000000065655F52DE
:10579000656164427974657320A3BA2564200A0D9B
:1057A0000000000010B504462146A02000F054FB84
:1057B00008B9012010BD204600F08DF90020F9E75E
:1057C0002DE9F0410746884615461E46304600F052
:1057D00038F93146A02000F0B6F9304600F063FAFF
:1057E00000B12FE008F0FF00314600F0ACF9304680
:1057F00000F059FA00B125E0304600F022F93146B8
:10580000A12000F0A0F9304600F04DFA00B119E0F7
:1058100000240FE0304600F000FA3855681EA04220
:1058200003D0304600F090FA02E0304600F0D7FA9C
:10583000601C84B2AC42EDDB304600F04CF9012034
:10584000BDE8F081304600F046F90020F8E72DE988
:10585000F0478046894692461D464F46002435E073
:1058600014B107F0070018BB284600F034F90026F1
:105870000DE0284600F0E5F82946A02000F063F985
:10588000284600F010FA00B904E0701C86B2B6F5A4
:105890007A7FEEDB00BFB6F57A7F00D11EE0F8B26A
:1058A000294600F050F9284600F0FDF900B115E056
:1058B00018F80400294600F046F9284600F0F3F9EC
:1058C00000B10BE0781C87B2601C84B25445C7DB82
:1058D000284600F000F90120BDE8F087284600F0D6
:1058E000FAF80020F8E730B5C1B00546002404E01E
:1058F000FF2001A90855601C84B2FF2CF8DD2B465F
:105900004FF48072002101A8FFF7A1FF20B924A065
:1059100000F05CFB41B030BD26A000F057FB00BF9B
:10592000F8E701B502E00098401E009000980028BA
:10593000F9D108BD30B5C1B005462846FFF732FFA2
:1059400020B921A000F042FB00BFFEE72448FFF78A
:10595000E8FF2B464FF48072002101A8FFF730FFCB
:1059600020B920A000F032FB41B030BD22A000F0F1
:105970002DFB00240DE001A8015D26A000F026FB10
:1059800004F00F000F2802D109A000F01FFB601CDB
:1059900084B2FF2CEFDD21A000F018FB00BFE3E78D
:1059A000B2C1B3FD656570726F6DB3F6B4EDA3A1BE
:1059B0000D0A0000B2C1B3FD656570726F6DB3C9A9
:1059C000B9A6A3A10D0A0000C3BBD3D0BCECB2E2C0
:1059D000B5BDB4AED0D0454550524F4D210D0A0053
:1059E000FFFF0F00B6C1656570726F6DB3F6B4ED61
:1059F000A3A10D0A00000000B6C1656570726F6D4D
:105A0000B3C9B9A6A3ACCAFDBEDDC8E7CFC2A3BA6D
:105A10000D0A0000202530325800000065657072C4
:105A20006F6DB6C1D0B4B2E2CAD4B3C9B9A60D0A7B
:105A300000000000002001E0411CC8B21E28FBDB72
:105A4000704710B5044604EB440000EBC400FE4967
:105A500001EB8000C08904EB440101EBC401FA4A68
:105A600002EB81014968086104EB440000EBC400CB
:105A7000114601EB8000808904EB440101EBC40175
:105A800052F821100861FFF7D5FF04EB440000EB4A
:105A9000C400ED4901EB8000C08904EB440101EB37
:105AA000C401E94A02EB810149684861FFF7C2FF7E
:105AB00004EB440000EBC400E34901EB8000808963
:105AC00004EB440101EBC401DF4A52F821104861A4
:105AD000FFF7B0FF10BD10B5044604EB440000EB27
