:020000040800F2
:1000000048120020CD01000823130008710F0008DA
:100010002113000879080008AD1E00080000000048
:10002000000000000000000000000000211900088E
:100030001309000800000000E3130008511900082C
:10004000AF1E0008E1130008531900088B170008C1
:10005000910A0008F5160008190A00081D0A000890
:100060001F0A0008210A0008230A0008FD080008EA
:10007000FF08000801090008030900080509000835
:100080000709000809090008BF040008A91E0008A4
:10009000AB1E00087B0800087D080008250A000840
:1000A000551900085B19000859190008571900086C
:1000B0005D19000891190008C1190008750F0008A2
:1000C000730F0008790F0008770F00081B1900084C
:1000D0001D190008391C0008F51C0008F71C000851
:1000E0001B0A000889170008A71E0008C919000884
:1000F000CF190008CD190008CB190008C104000869
:10010000CB0B000819190008C31900081F190008B3
:10011000791B00087D1B0008C5190008C7190008D5
:100120000B0900080D0900080F0900081109000853
:1001300000F002F800F03AF80AA090E8000C8244BF
:100140008344AAF10107DA4501D100F02FF8AFF29C
:10015000090EBAE80F0013F0010F18BFFB1A43F0A5
:1001600001031847A8250000C8250000103A24BF45
:1001700078C878C1FAD8520724BF30C830C144BF0C
:1001800004680C607047000000230024002500264E
:10019000103A28BF78C1FBD8520728BF30C148BFEA
:1001A0000B6070471FB51FBD10B510BD00F04DF9B5
:1001B0001146FFF7F7FF01F089FF00F06BF903B478
:1001C000FFF7F2FF03BC00F073F90000034800479B
:1001D00003480449044A054B7047000031010008F8
:1001E000480A002048120020480E0020480E002037
:1001F00030BF704720BF704740BF7047BFF36F8F5D
:100200007047BFF34F8F7047BFF35F8F704701DFB9
:100210007047EFF31480704780F31488BFF36F8F3B
:100220007047EFF30980704780F309887047EFF358
:100230000880704780F30888704762B6704772B6CE
:100240007047EFF31080704771B6704761B6704722
:10025000EFF31380704780F311887047EFF312803B
:10026000704740BA704700BA704740EA010302463F
:1002700030B59B0710D14FF0013400E008C208C927
:100280001D1B9D4315EAC41FF8D013F0FF0102F8AF
:10029000011B0DD01B0AF8E711F8013B002B02F8F7
:1002A000013B05D011F8013B002B02F8013BF3D1D3
:1002B00030BD10B5431C02E010F8011B71B181077D
:1002C000FAD14FF0013202C88C1A8C4314EAC211E1
:1002D000F9D0C01A0A0603D0C01E10BDC01A10BD46
:1002E0000A0401D0801E10BD0902FCD0401E10BDC2
:1002F000421E12F8013F002BFBD111F8013B002BED
:1003000002F8013BF9D17047032A40F2308010F027
:10031000030C00F0158011F8013BBCF1020F6244A0
:1003200098BF11F801CB00F8013B38BF11F8013B31
:10033000A2F1040298BF00F801CB38BF00F8013BDE
:1003400011F0030300F04F80083AC0F0088051F824
:10035000043B083A51F804CBA0E80810F5E7121D59
:100360005CBF51F8043B40F8043BAFF30080D20778
:1003700024BF11F8013B11F801CB48BF11F8012B44
:1003800024BF00F8013B00F801CB48BF00F8012B67
:1003900070474FF0000200B5134694469646203948
:1003A00022BFA0E80C50A0E80C50B1F12001BFF42E
:1003B000F7AF090728BFA0E80C5048BF0CC05DF894
:1003C00004EB890028BF40F8042B08BF704748BFE2
:1003D00020F8022B11F0804F18BF00F8012B704756
:1003E00070477047704710B5203AC0F00B80B1E8F5
:1003F0001850203AA0E81850B1E81850A0E818505A
:10040000BFF4F5AF5FEA027C24BFB1E81850A0E862
:10041000185044BF18C918C0BDE810405FEA827C7C
:1004200024BF51F8043B40F8043B08BF7047D20793
:1004300028BF31F8023B48BF11F8012B28BF20F834
:10044000023B48BF00F8012B7047754600F02CF8BE
:10045000AE4605006946534620F00700854618B0B1
:1004600020B5FFF7B5FEBDE820404FF000064FF085
:1004700000074FF000084FF0000B21F00701AC46D9
:10048000ACE8C009ACE8C009ACE8C009ACE8C009F8
:100490008D46704710B50446AFF300802046BDE896
:1004A0001040FFF78CBE000000487047E8090020AC
:1004B00001491820ABBEFEE72600020070477047D6
:1004C0007047F0B507461C4616460D462A2000F038
:1004D00001FFBF1CB8B200F0C3FDB61CB0B200F003
:1004E000BFFD2B2000F0F6FEED1CA8B200F0B8FD19
:1004F000E41CA0B200F0B4FDBDE8F0402C2000F0F8
:10050000E9BE0000104910B5087814460B1F632897
:100510000ED00E48007872280DD030200870187068
:100520000BA20021052000F0A7FF0220207010BDC3
:1005300072201870F1E70AA20021052000F09CFF4C
:10054000BDE8104000F04ABDF8BF002000F80708E1
:10055000446F776E4C6F61642E2E2E2100000000D8
:10056000546F20417070210010B500F015F800F0B4
:1005700057F8BDE8104000F0BBB810B500F0CEFF52
:1005800000F0D0FE00F036FB00F013F800F05CF84D
:10059000BDE8104000F0E4B810B501218C0700223E
:1005A000204601F089FA2046BDE81040002101F004
:1005B00012BA7FB50121084600F080FF4FF0804558
:1005C000284601F013FA0024ADF8064040F253101B
:1005D000ADF80400ADF802404720ADF800006946D0
:1005E000284601F073FA1C208DF80C000A208DF8C3
:1005F0000D008DF80E4001208DF80F0003A800F0CB
:100600009DFE0021284601F05FFA0122114628468E
:1006100001F052FA0121284601F0DDF97FBD00000A
:1006200010B5084C0021204601F0D5F900212046E4
:1006300001F04AFA20460022BDE81040012101F0F5
:100640003BBA0000000400407FB50121022000F009
:1006500035FF194E304601F0C9F90024ADF80640C7
:100660004DF63F31ADF80240ADF804100125ADF86C
:1006700000506946304601F029FA1D208DF80C0023
:1006800006208DF80D008DF80E408DF80F5003A850
:1006900000F054FE0021304601F016FA002201213C
:1006A000304601F009FA0121304601F091F90021AC
:1006B000304601F090F97FBD0004004010B5084CB1
:1006C0000021204601F000FA0121204601F083F9C3
:1006D00020460122BDE81040114601F0EDB90000AE
:1006E0000004004001490860704700003800002005
:1006F0002DE9F041154801780129FCD1144C002165
:10070000204601F0FFFA40F22775002229462046D4
:1007100001F057FB40F2255600223146204601F0F9
:1007200050FB40F2266700223946204601F049FB83
:100730002946204601F0E0FA3946204601F0DCFA6D
:1007400031462046BDE8F04101F0D6BA3C00002019
:100750000050004001494860704700003C00002004
:1007600070B586B00121302000F0C0FE01210805DF
:1007700000F0A4FE264E304601F0CEFA684601F0A5
:1007800087FB00244FF4E1300090ADF808400C20C6
:10079000ADF80640ADF80A00ADF8044069463046B1
:1007A00001F028FBB014ADF8100001258DF81250AF
:1007B00018208DF8130004A9164800F067FB0421E7
:1007C000ADF810108DF812508DF8131004A91248CE
:1007D00000F05CFB012240F22771304601F0F1FA93
:1007E000012240F22551304601F0EBFA35208DF818
:1007F00014008DF815508DF816408DF8175005A887
:1008000000F09CFD0121304601F07CFA06B070BD7D
:100810000050004000100140001401402DE9F0415B
:10082000134F0C46B968096831B92CB1B4F5836F20
:1008300002D83978012902D00020BDE8F08110F8F3
:10084000011B0C4E0546304601F01EFB002139709D
:10085000B868621E04C020F8021B2946FFF754FD49
:10086000012240F22771304601F0ABFA0120E4E7A3
:100870003C00002000500040FEE770477047000039
:1008800018B10348C08800F015BC4FF6FF70FAE7B6
:10089000500000200C4B187860B101280CD00228C1
:1008A0000DD003280DD00020187008491B69064A96
:1008B000881D1847064800E006481861F5E7064815
:1008C000FBE70648F9E70000000000206800002070
:1008D00005050008290900087D0F0008BD1700085C
:1008E00010B50448FFF7FEFEBDE810400248FFF7D0
:1008F00031BF0000091B00088D17000870477047C2
:10090000704770477047704770477047704770472F
:100910007047704703E00F21491E89B2FCD2401E88
:1009200080B2F8D27047000070B50646012008601A
:100930000C4615460CA13046FFF797FC1AA130462D
:10094000FFF7D6FC1EA13046FFF7D2FC21A13046AE
:10095000FFF7CEFC2EA13046FFF7CAFC022028701C
:100960000020206070BD00000D2A2A2A2A2A2A2A87
:100970002A2A2A2A2A2A2A2A2A2A2A2A2A2A2A2AD7
:100980002A2A2A2A2A2A2A2A2A2A2A2A2A2A2A2AC7
:100990002A2A2A2A2A2A2A2A2A2A2A2A2A2A2A2AB7
:1009A0002A2A0D0A00000000312EB8FCD0C2D3A6BE
:1009B000D3C3C7F8B3CCD0F2A3BB0D0A000000002C
:1009C000322ED4CBD0D0415050B3CCD0F2A1A30D15
:1009D0000A0000002A2A2A2A2A2A2A2A2A2A2A2A15
:1009E0002A2A2A2A2A2A2A2A2A2A2A2A2A2A2A2A67
:1009F0002A2A2A2A2A2A2A2A2A2A2A2A2A2A2A2A57
:100A00002A2A2A2A2A2A2A2A2A2A2A2A2A0D0A00AD
:100A1000C7EBD1A1D4F13A007047704770477047D7
:100A2000704770477047000070B5054640F6FF7686
:100A3000304600F09BF8042813D10A4C206940F09E
:100A4000020020616561206940F04000206130466D
:100A500000F08CF8012804D0216941F6FD721140A4
:100A6000216170BD0020024008490420CA68D207F5
:100A700001D001207047CA68520701D50220704793
:100A8000C968C906FBD5032070470000002002405A
:100A9000704700000248016941F080010161704720
:100AA0000020024004490A6822F010020A600A6825
:100AB00002430A607047000000200240FFF7EABFCF
:100AC00070B506460D460F2000F050F804280FD1EF
:100AD000084C206940F00100206135800F2000F0B3
:100AE00045F8012804D0216941F6FE7211402161C8
:100AF00070BD0000002002407CB50020042600905C
:100B000000F028F84FF4FA20FA240A4D019007E08B
:100B100005EBC020FFF788FF00990646491C0091AD
:100B20000098A04201D2042EF2D0BDE87C400248D9
:100B3000FFF77ABF0030000800F8070804490A6888
:100B400002F038020A600A6802430A607047000037
:100B50000020024003480249416003494160704758
:100B60002301674500200240AB89EFCD18B503464D
:100B7000FFF77AFFFF2407E020460094401E009014
:100B8000FCD1FFF771FF5B1E012803D0002B00D1C1
:100B9000052018BD002BEFD1FAE738B504468D18B3
:100BA000084600910DE02188FFF78AFF2088009910
:100BB0000988884201D0002038BD0098801CA41C00
:100BC00000908542EFD8012038BD704700280CD135
:100BD000064810220823C2704370827001810449C4
:100BE0004161012101700021017170475000002016
:100BF0000C2100082DE9F05F0121022000F094F99A
:100C00000121082000F090F90121954800F08CF9AD
:100C10000121080300F088F90121924800F084F9CD
:100C20000121914800F080F9904CFF20012620809E
:100C3000DFF83CA2A6700027E7702146504600F07E
:100C400025F94FF4014020800320A0701025E570A5
:100C50002146504600F01AF9680120800320A07058
:100C60004FF0180884F803802146504600F00EF932
:100C7000A80120800320A0704FF0040984F803909D
:100C80002146504600F002F903202080DFF8E4B14D
:100C9000A670E7702146584600F0F8F841F2A80027
:100CA00020800320A070E5702146584600F0EEF841
:100CB0004FF4706020801420E0700320A070214663
:100CC000584600F0E3F84FF0480A84F803A00320E8
:100CD000A0704EF2400020802146584600F0D6F821
:100CE0003F202080A670E7702146634800F0CEF8D0
:100CF0004FF4A65020800320A07084F80380214682
:100D00005D4800F0C3F84FF4807BA4F800B00320E6
:100D1000A070E5702146584800F0B8F84FF408502C
:100D200020800320A07084F803A02146524800F0E0
:100D3000ADF84FF4404020800220A070E5702146BD
:100D40004D4800F0A3F8E801208084F80390214684
:100D5000494800F09BF84FF4017020800320A070F8
:100D600084F803902146454800F090F840F6BB40D7
:100D700020800320A070E5702146404800F086F8EE
:100D80004FF4714020800320A07084F80380214636
:100D90003A4800F07BF8402020800320A0702820F3
:100DA000E0702146354800F071F849F2FF002080DC
:100DB0000320A070E5702146314800F067F84FF439
:100DC000DC4020800320A07084F8038021462C485A
:100DD00000F05CF8A4F800B00320A07084F8039041
:100DE0002146274800F052F84FF63F0020800320AC
:100DF000A070DFF89080E5702146404600F046F88C
:100E00004FF4F8602080A670E7702146404600F05D
:100E10003DF840F2AF2020800320A0701A4FE5700B
:100E20002146384600F032F84FF640002080A67088
:100E300084F803A02146384600F028F8A4F800B052
:100E4000E570A6702146384600F020F80220A07018
:100E500084F803A021463846BDE8F05F00F016B8DC
:100E600030001400C00016000002300032000020E4
:100E700000080140000C0140001001400014014036
:100E800000180140001C014000200140F0B5CC7862
:100E9000002204F00F03E40601D58C7823430C787C
:100EA0004FF00F0C14F0FF0F4FF0010E1AD0056831
:100EB0000E880EFA02F42640A6420FD196000CFAD4
:100EC00006F725EA070703FA06F5CE783D43282EF4
:100ED00000D14461CE78482E00D10461521C082A0A
:100EE000E6D305600A88FF2A1CD94468002202F173
:100EF00008060EFA06F50E882E40AE420ED1960078
:100F00000CFA06F7BC4303FA06F7CE783C43282ECA
:100F100000D14561CE78482E00D10561521C082AC7
:100F2000E5D34460F0BD0000F0B5104D6B68440D92
:100F3000260184B2C0F30157B440C0F30342032F2B
:100F400005D0C0020AD503209040834307E06868BB
:100F500023F0706220F07060686002E0A34343F009
:100F6000706201B122436A60F0BD000000000140E0
:100F7000FEE77047704770477047000070B50C4639
:100F8000096800291BD000780025312804D03228B8
:100F90000FD0352812D10EE00A48094941610A49AB
:100FA00041600A49C1600A4981600320107009A0AC
:100FB00002E0157002E008A000F014FA256070BD90
:100FC0000030000800000020F90A00089B0B000810
:100FD000BD0A0008310000006200000070B50A4D33
:100FE00028680A490840B0F1005F0CD1FFF7BCFA4D
:100FF0006868074C2062E0612868FFF71BF9E06928
:10100000BDE87040004770BD003000080000FE2FB2
:1010100000000020F0B50F4A102616600E4B911408
:1010200019600E4F0021F4022023A7F1040C151FB4
:101030005FEA006E01D43C6001E0CCF8004040065D
:10104000000E13602B60491CC9B20829F0D32E6032
:10105000F0BD00001414014010180140141C0140A0
:101060002DE9F043104A10261660104B91141960B8
:101070000F4F0021F4022023A7F104094FF6FF7C53
:10108000151F5FEA004801D43C6001E0C9F8004048
:101090000CEA400013602B60491CC9B21029F0D340
:1010A0002E60BDE8F08300001414014010180140C8
:1010B000141C014070B506467F2300211A460846DD
:1010C000FFF7FFF900250024B0B2FFF7C9FF641C49
:1010D000A4B2802CF8D36D1CADB2802DF3D370BDBB
:1010E00070B57B4C4FF4007565611420FFF712FC5E
:1010F00025616420FFF70EFC112000F0EBF81420AE
:10110000FFF708FC7820FFF705FC112000F0E2F85B
:101110001420FFF7FFFBB12000F0DCF80520FFF7FB
:1011200079FF3C20FFF776FF3C20FFF773FFB220EA
:1011300000F0D0F80520FFF76DFF3C20FFF76AFFB5
:101140003C20FFF767FFB32000F0C4F80520FFF74D
:1011500061FF3C20FFF75EFF3C20FFF75BFF0520AF
:10116000FFF758FF3C20FFF755FF3C20FFF752FFE9
:10117000B42000F0AFF80320FFF74CFFC02000F0D0
:10118000A9F8A220FFF746FF0220FFF743FF8420C3
:10119000FFF740FFC12000F09DF8C520FFF73AFFA0
:1011A000C22000F097F80D20FFF734FF0020FFF772
:1011B00031FFC32000F08EF88D20FFF72BFF2A208F
:1011C000FFF728FFC42000F085F88D20FFF722FFED
:1011D000EE20FFF71FFFC52000F07CF80A20FFF784
:1011E00019FF362000F076F8C820FFF713FFE02043
:1011F00000F070F81220FFF70DFF1C20FFF70AFF28
:101200001020FFF707FF1820FFF704FF3320FFF738
:1012100001FF2C20FFF7FEFE2520FFF7FBFE282014
:10122000FFF7F8FE2820FFF7F5FE2720FFF7F2FE74
:101230002F20FFF7EFFE3C20FFF7ECFE0020FFF72A
:10124000E9FE0320FFF7E6FE0320FFF7E3FE102090
:10125000FFF7E0FEE12000F03DF81220FFF7DAFE94
:101260001C20FFF7D7FE1020FFF7D4FE1820FFF751
:10127000D1FE2D20FFF7CEFE2820FFF7CBFE232046
:10128000FFF7C8FE2820FFF7C5FE2820FFF7C2FEA3
:101290002620FFF7BFFE2F20FFF7BCFE3B20FFF705
:1012A000B9FE0020FFF7B6FE0320FFF7B3FE0320D0
:1012B000FFF7B0FE1020FFF7ADFE3A2000F00AF86D
:1012C0000520FFF7A7FEBDE87040292000F002B816
:1012D00000200140F0B50F4A102616600E4B911405
:1012E00019600E4F0021F4022023A7F1040C151FF2
:1012F0005FEA006E01D43C6001E0CCF8004040069B
:10130000000E13602B60491CC9B20829F0D32E606F
:10131000F0BD00001414014014180140141C0140D9
:10132000FEE7704710B500214FF0006000F04EF866
:10133000BDE810404FF4407000F03EB870B50F2586
:10134000C2780178012652B31A4A1268447802F42E
:10135000E062C2F5E062120AC2F10403D54082786D
:101360009C402A40224314018A07D30E21F0030235
:1013700002F1E0229C40D2F80054FF2199408D43B5
:101380000C402543C2F80054007800F01F018E4045
:101390004009800000F1E020C0F8006170BD01F05C
:1013A0001F0086404809800000F1E020C0F88061FD
:1013B00070BD00000CED00E00249084302490860DE
:1013C000704700000000FA050CED00E0024A1140F1
:1013D000014302480160704780FFFF1F08ED00E0F5
:1013E0007047704770B50546FEF763FF84B221462B
:1013F0002846FFF713FA0128F9D170BD2DE9F05FF7
:101400001C4B8246184688461C784169C078012CDE
:1014100000D1203A02FB00160027994622E0B8F1DD
:10142000800F25D800244FF6FF7B13E0600701D121
:1014300016F8015B0AEB040080280FDC2A0602D5AF
:10144000B9F8082000E05A46414600F031FD680630
:10145000050E641C99F801008442E7DB08F10100E5
:1014600000F0FF08384699F802207F1C9042D6DB36
:10147000BDE8F09F500000202DE9F04115460E46D2
:1014800004460D4F12E031462046FFF7B7FF78784B
:101490002118CCB22044802807D9B8780024C6F19E
:1014A0008001814205DB3044C6B26D1C2A78002AD7
:1014B000E9D1BDE8F081000050000020044A002975
:1014C000D16901D0014300E08143D1617047000040
:1014D00000100240044A0029116901D0014300E0D4
:1014E000814311617047000000100240044A002946
:1014F000916901D0014300E0814391617047000090
:1015000000100240044A0029D16801D0014300E0E4
:101510008143D160704700000010024010B500F018
:101520003DF84FF48034204600F0CAF800F012F97C
:1015300018490128087022D11020FFF7B3FA0220C1
:10154000FFF7FCFA002000F0B1F8002000F0DEF810
:10155000002000F0D1F84FF4E011204600F0E6F84A
:10156000012000F0DDF8392000F080F80028FAD0E2
:10157000022000F0E5F800F091F80828FBD10121E5
:101580000548FFF79BFFBDE8104001214EF6FD70B6
:10159000FFF7ACBF3000002005C07E180B48016883
:1015A00041F0010101604168094A11404160016850
:1015B000084A11400160016821F4802101604168FE
:1015C00021F4FE014160002181607047001002405B
:1015D0000000FFF8FFFFF6FE30B5204A5168204BAF
:1015E00011F00C0103D0042901D0082901D00360B7
:1015F00011E05168022301F4701103EB914153682B
:1016000013F4803F02D053689B0301D5154B00E0D3
:10161000134B5943016051680F2303EA1111124B18
:101620005C5C0168E14041605468072505EA1424C8
:101630001C5D21FA04F48460546805EAD4241B5D1F
:10164000D940C1605268032303EA9232064B1B1F44
:101650009A5CB1FBF2F1016130BD00000010024064
:1016600000127A0000093D00FC200008034600201B
:101670005909094A01290AD002290AD0516A03F0FE
:101680001F02012393400B4200D0012070471168D4
:10169000F5E7116AF3E700000010024002484068D5
:1016A00000F00C007047000000100240034A51682F
:1016B00021F0F0010143516070470000001002402A
:1016C0000B490A6822F480320A600A6822F48022F8
:1016D0000A60B0F5803F07D0B0F5802F03D10868CD
:1016E00040F4A02008607047086840F48030F9E7B3
:1016F0000010024070470000034A516821F4E06185
:10170000014351607047000000100240034A5168D5
:1017100021F4605141EAC00050607047001002405F
:10172000014908667047000000004242034B5A68B6
:10173000084322F47C1210435860704700100240A6
:10174000034A516821F003010143516070470000D2
:101750000010024030B50B4C40F2FF153120FFF76E
:1017600085FF20706068401C6060207810B9606858
:10177000A842F3D13120FFF779FF002800D00120E3
:1017800030BD00004800002070477047094A91882A
:10179000B1F5836F0CD21368002B09D1931DC85487
:1017A00090880549401C908000208861FEF786BF24
:1017B00070470000680000200000002070B5ADF503
:1017C000816D0C46064640F204416846FEF7E1FD95
:1017D00000250DF204436A4621463046CDF80454F4
:1017E00000F074FB164CB0F1FF3F18D0012808D070
:1017F000022803D16068002800D080470DF5816D74
:1018000070BDE3682BB1DDF80404616982B26846FB
:1018100098476069DDF8041408446061EEE7A06849
:1018200000B180476560E5600020A560FFF728F8FB
:1018300004A200210520FFF71FFEFFF7CFFBDDE725
:10184000000000205265637620456E642100000090
:101850002DE9F0478C4692460178089A994601296D
:101860000BD002290BD0042917D0032915D0182931
:101870000DD04FF0FF30BDE8F087802501E04FF438
:101880008065417891420AD06FF00100F3E740781B
:10189000182802D06FF00500EDE70020EBE7817813
:1018A000D243D2B2914202D06FF00200E3E7691D49
:1018B0008C4502D06FF00300DDE7C21C29460023EF
:1018C00041F221074FF6FF7810E012F8014B83EA4E
:1018D000042308241E0403D587EA43039BB201E0D6
:1018E00008EA4303641E2404240CF3D1491E89B280
:1018F000EBD200EB0C0131F8021C49BA994202D03C
:101900006FF00400B7E7C11C2A465046FEF7FCFC06
:101910000120C9F80050AEE7704770477047704724
:101920007047000070B50E460546FFF713F9074CE7
:101930002046FFF779F829462046FFF7C1F83146DF
:10194000201DFFF7BDF8FFF7A5F870BD00F80708E8
:1019500070477047704770477047704770B50121F6
:101960008D070024284600F09BF801280DD10121A5
:10197000284600F02DF8054850F82410491C40F87E
:101980002410641CA4B2042CF6D370BDB80500204A
:1019900010B5094C0121204600F082F801280AD137
:1019A0000121204600F014F804480068002802D005
:1019B000BDE81040004710BD000400403800002082
:1019C000704770477047704770477047704770475F
:1019D000C943018270470029018802D041F001010A
:1019E00002E040F2FE321140018070472A4A10B5F1
:1019F000811A1315D41490423BD010DCB0F1804F03
:101A000022D02649401826D098422BD0A04241D15E
:101A100001210820FFF75EFD0021082036E09942F1
:101A20002ED0B1F58E3F0DD0B1F5923F32D10121CC
:101A30004C032046FFF766FD2046BDE8104000211C
:101A4000FFF760BD0121F4E701210846FFF742FDE1
:101A5000002101201AE001210220FFF73BFD0021B7
:101A6000022013E001210420FFF734FD00210420AF
:101A70000CE001211020FFF72DFD0021102005E0D2
:101A800001212020FFF726FD00212020BDE8104085
:101A9000FFF720BD10BD00000010004000FCFFBF9C
:101AA00002460020138A92890B4202EA010202D008
:101AB000002A00D001207047002A828901D00A4301
:101AC00000E08A438281704781847047028802F077
:101AD0008F020280CA884B881A4303881A43028007
:101AE0008A8882850A88028501228282044A90427D
:101AF00002D0044A904201D1097A01867047000061
:101B0000002C0140003401402DE9F041184F194DDF
:101B100007F58466B888B06029780024032924D1A9
:101B2000B979012902D002290DD01EE07F281CD2EC
:101B3000FEF7C4FDA869401CA86130601E2812DDB4
:101B4000B88838600EE040F2FF3188420DD2FEF7CF
:101B5000B5FDA869401CA8617060B98831611E2874
:101B600001DD3960BC80BDE8F081FEF759FDE7E793
:101B70006800002000000020704700002DE9F041BF
:101B80002B4D40F227773946284600F0FBF8294CC8
:101B900040F22666012814D03146284600F0F2F8BB
:101BA00078B33146284600F0A7F80022314628468F
:101BB00000F007F9A1680020086001202070BDE84E
:101BC000F0813946284600F097F8A068016861B1B5
:101BD0008188831D4A1C8280C95C284600F054F924
:101BE000A0680168491E0160E9E7002239462846DD
:101BF00000F0E7F831462846BDE8F041012200F048
:101C0000E0B840F225563146284600F0BBF80028DF
:101C1000D5D03146284600F06FF8284600F030F95C
:101C20006168C0B20029CAD0BDE8F0410847000091
:101C3000005000403C0000202DE9F0412B4D40F2C7
:101C400027773946284600F09DF8294C40F2266651
:101C5000012814D03146284600F094F878B3314674
:101C6000284600F049F800223146284600F0A9F83D
:101C7000A1680020086001202070BDE8F08139468D
:101C8000284600F039F8A068016861B18188831D99
:101C90004A1C8280C95C284600F0F6F8A0680168FA
:101CA000491E0160E9E700223946284600F089F81C
:101CB00031462846BDE8F041012200F082B840F2EA
:101CC00025563146284600F05DF80028D5D031462B
:101CD000284600F011F8284600F0D2F86168C0B23A
:101CE0000029CAD0BDE8F041084700000038014093
:101CF0003C000020704770470A0A01219140C94307
:101D0000018070470029818902D041F4005101E02F
:101D100021F4005181817047184A10B5811A1315BA
:101D200090421BD007DC1649401814D0984223D1AA
:101D30000121040217E0994213D0B1F56C4F1BD179
:101D400001218C032046FFF7DDFB2046BDE8104053
:101D50000021FFF7D7BB01214C0404E00121CC0492
:101D600001E001210C052046FFF7B4FB2046BDE849
:101D700010400021FFF7AEBB10BD0000004C00403A
:101D800000BCFFBF70B501F01F0501260024C1F3A0
:101D9000421306FA05F2012B0FD0022B0FD0838AD3
:101DA0004FEA11210088134206FA01F600EA060004
:101DB00001D000B10124204670BD8389F0E7038A79
:101DC000EEE710B5C1F3421301F01F040121A14059
:101DD000012B07D0022B07D01430002A026805D04F
:101DE0000A4304E00C30F8E71030F6E78A4302605B
:101DF00010BD000030B50446008A85B00D464CF693
:101E0000FF710840E98801432182A0894EF6F31151
:101E10000840A9882A8911436A8902431143A18194
:101E2000A08A4FF6FF410840A9890143A182684674
:101E3000FFF7D2FB1148844201D1039800E00298D9
:101E4000642200EBC00101EB001029686FF0180557
:101E50008900B0FBF1F0B0FBF2F109010B096B4313
:101E600000EB8300322303EB0010B0FBF2F000F034
:101E70000F000843208105B030BD0000003801404C
:101E80008088C0F308007047C1F308018180704763
:101E90004FF41651016000218180C18001810C2224
:101EA000428181817047704770477047FEE77047F5
:101EB000AFF3008010B514460B460246FEF701FB57
:101EC0002046BDE81040FFF7CBB800002DE9F84FE1
:101ED0006D4D93460C4600262A786C494FF0040A53
:101EE0004FF001094FF47A7C3746052A0DD2DFE81E
:101EF00002F0030D5F6EB5006F60AF606F7085F824
:101F00000090C868002800DBCF6086E08846C9687A
:101F1000614509DBC8F80C705B4A5B490832432015
:101F200000F0BAF82F7078E02168002975D00278A7
:101F3000DFF85CC1012A02D0022A06D009E0CCF801
:101F4000001021687F29FDDB03E040F2FF3291425F
:101F5000FDDBCCF80010297900915A462168FFF783
:101F600077FC40B2276078B101281BD19BF80300B1
:101F700038B10220287006466868401C68606F709F
:101F800045E085F800A042E0687808B16F604CE059
:101F90003D4A3D490832152000F07EF86878401C23
:101FA000687034E0384A6F700832374915202CE0E9
:101FB0000320354A287008323349062000F06CF8B7
:101FC000314A31490832432000F066F825E088465E
:101FD000C968614504DBC8F80C7085F800A01CE0F6
:101FE0002168D1B12A7900925A46FFF731FC40B2FC
:101FF0002760A8B10128D5D16868234A401C6860D1
:1020000001266F7008322049062000F045F8D8F804
:102010000C104046002900DBC7603046BDE8F88F51
:10202000687838B16F6085F80090174A1649083211
:102030000620B1E7144A14490832152000F02CF8A4
:1020400014480078722804D11248001D00786C28CA
:10205000A4D06C217220FFF765FC9FE70A4A0A4969
:102060000832062000F018F8074A074908321820FD
:1020700000F012F8044A04490832182000F00CF865
:102080004FF0FF364EE7000024000020B805002086
:10209000D804002000F8070837B514460D46012182
:1020A0006846FEF7BBFB0128F9D19DF80000062821
:1020B00009D0152806D12068401C2060052801DDC4
:1020C000042028703EBD002020603EBDFEF755FA7A
:1020D000FEF706FC074980200860FFF701F84FF47F
:1020E00078410020FEF772FD0020FEF7C9FBFEF7E5
:1020F000D1FBFCE7101401400204060800000000B8
:10210000010203040102030406070809000000009D
:10211000000000000000000000000000001010108F
:10212000101010101010000018180000362448007D
:10213000000000000000000000000000000000247B
:102140002424FE484848FE4848480000103854926D
:1021500092503018141292925438100000629294E7
:1021600094680810202C5252928C0000003048488D
:102170004848302054948888946200003030102001
:102180000000000000000000000000000408101023
:1021900020202020202020101008040040201010B3
:1021A0000808080808080810102040000000001067
:1021B00092543810385492100000000000000000C3
:1021C000101010FE101010000000000000000000B1
:1021D000000000000000003030102000000000006F
:1021E0000000007C00000000000000000000000073
:1021F0000000000000000000303000000002020477
:1022000004080810202040408080000000304884EE
:102210008484848484848484483000000010701096
:102220001010101010101010101000000030488412
:10223000840408081020204080FC000000304884FE
:10224000840408300804848448300000000808181A
:10225000182828484888FC080808000000FC8080EE
:1022600080B0C884040404844830000000304884EE
:102270008480B0C8848484844830000000FC040456
:10228000080808101010202020200000003048848A
:102290008484483048848484483000000030488476
:1022A0008484844C3404848448300000000000009E
:1022B000003030000000003030000000000000005E
:1022C0000030300000000030301020000000040812
:1022D0001020408040201008040000000000000092
:1022E000007C0000007C0000000000000000804036
:1022F00020100804081020408000000000304884AE
:10230000840408102020000030300000003844828F
:102310009AAAAAAAAAAA9C80423C000000101028EF
:102320002828284444447C828282000000F8848269
:10233000828284F88482828284F800000038448299
:1023400082808080808082824438000000F884820D
:10235000828282828282828284F8000000FE8080F3
:10236000808080FC8080808080FE000000FE808075
:10237000808080FC808080808080000000384482E3
:10238000828080808E828282463A00000082828231
:10239000828282FE82828282828200000038101055
:1023A0001010101010101010103800000004040459
:1023B00004040404040484844830000000828484FB
:1023C000889090A0D08888848282000000808080DD
:1023D000808080808080808080FE0000008282C6B5
:1023E000C6C6C6AAAAAAAA9292920000008282C277
:1023F000C2A2A292928A8A86868200000038448213
:1024000082828282828282824438000000F8848242
:10241000828284F88080808080800000003844823E
:10242000828282828282928A443A000000F8848208
:10243000828284F888888484828200000038448202
:1024400082806018040282824438000000FE10106E
:102450001010101010101010101000000082828256
:10246000828282828282828244380000008282825A
:1024700044444444282828101010000000929292EE
:1024800092AAAAAAAA444444444400000082824476
:102490004428281028284444828200000082824474
:1024A00044282810101010101010000000FE020424
:1024B000040808102020404080FE00007C4040407E
:1024C000404040404040404040407C0000828244C8
:1024D0004428287C10107C10101000007C04040498
:1024E000040404040404040404047C0010284400CC
:1024F00000000000000000000000000000000000DC
:102500000000000000000000000000FF2010080094
:1025100000000000000000000000000000000000BB
:1025200000007884043C44848C7600000080808025
:102530008080B8C482828282C4B80000000000009B
:1025400000003C4280808080423C00000002020289
:1025500002023A4682828282463A0000000000006F
:102560000000384482FE8080423C00000018202099
:102570002020F82020202020202000000000000043
:1025800000003A444438407C82827C000080808095
:102590008080B8C482828282828200000000101093
:1025A000000010101010101010100000000010108B
:1025B00000001010101010101010600000808080BB
:1025C0008080848890A0D088848200000010101041
:1025D000101010101010101010100000000000005B
:1025E0000000ACD292929292929200000000000001
:1025F0000000B8C482828282828200000000000053
:1026000000003844828282824438000000000000CA
:102610000000B8C4828282C4B8808000000000003C
:1026200000003A46828282463A0202000000000020
:1026300000002E302020202020200000000000007C
:1026400000007C8280601C02827C00000000202050
:102650002020F8202020202020180000000000006A
:102660000000828282828282463A000000000000DE
:10267000000082824444282810100000000000005E
:102680000000929292AAAA44444400000000000074
:10269000000082442810102844820000000000003E
:1026A00000008282444428281020C000000000005E
:1026B0000000FE040810204080FE00001C101010D6
:1026C000101010201010101010101C0010101010FE
:1026D000101010101010101010101010701010109A
:1026E00010101008101010101010700064980000E6
:1026F00000000000000000000000000000000000DA
:102700000000000000000000000000002C2700086E
:1027100000000020680000006C01000894270008F9
:1027200068000020E011000088010008000000009F
:102730000000000000000000000000000000000099
:102740000030000800000000000000000000000051
:102750000000000000000000000000000000000079
:102760000000000000000000010000000000000068
:10277000C80500200000000000000000000000006C
:102780000000000000000000000000000000000049
:042790000000000045
:0400000508000131BD
:00000001FF
